{
	"axbot/Receiver.sol": {
		"ERC20ReceiverEscrow": {
			"abi": [
				{
					"inputs": [
						{
							"internalType": "address",
							"name": "_gateway",
							"type": "address"
						},
						{
							"internalType": "address",
							"name": "_gasReceiver",
							"type": "address"
						}
					],
					"stateMutability": "nonpayable",
					"type": "constructor"
				},
				{
					"inputs": [],
					"name": "InvalidAddress",
					"type": "error"
				},
				{
					"inputs": [],
					"name": "NotApprovedByGateway",
					"type": "error"
				},
				{
					"anonymous": false,
					"inputs": [],
					"name": "Executed",
					"type": "event"
				},
				{
					"inputs": [
						{
							"internalType": "bytes32",
							"name": "commandId",
							"type": "bytes32"
						},
						{
							"internalType": "string",
							"name": "sourceChain",
							"type": "string"
						},
						{
							"internalType": "string",
							"name": "sourceAddress",
							"type": "string"
						},
						{
							"internalType": "bytes",
							"name": "payload",
							"type": "bytes"
						}
					],
					"name": "execute",
					"outputs": [],
					"stateMutability": "nonpayable",
					"type": "function"
				},
				{
					"inputs": [
						{
							"internalType": "bytes32",
							"name": "commandId",
							"type": "bytes32"
						},
						{
							"internalType": "string",
							"name": "sourceChain",
							"type": "string"
						},
						{
							"internalType": "string",
							"name": "sourceAddress",
							"type": "string"
						},
						{
							"internalType": "bytes",
							"name": "payload",
							"type": "bytes"
						},
						{
							"internalType": "string",
							"name": "tokenSymbol",
							"type": "string"
						},
						{
							"internalType": "uint256",
							"name": "amount",
							"type": "uint256"
						}
					],
					"name": "executeWithToken",
					"outputs": [],
					"stateMutability": "nonpayable",
					"type": "function"
				},
				{
					"inputs": [],
					"name": "gateway",
					"outputs": [
						{
							"internalType": "contract IAxelarGateway",
							"name": "",
							"type": "address"
						}
					],
					"stateMutability": "view",
					"type": "function"
				}
			],
			"devdoc": {
				"kind": "dev",
				"methods": {},
				"version": 1
			},
			"evm": {
				"assembly": "    /* \"axbot/Receiver.sol\":394:1126  contract ERC20ReceiverEscrow is AxelarExecutable {... */\n  mstore(0x40, 0xc0)\n    /* \"axbot/Receiver.sol\":497:653  constructor(address _gateway, address _gasReceiver)... */\n  callvalue\n  dup1\n  iszero\n  tag_1\n  jumpi\n  0x00\n  dup1\n  revert\ntag_1:\n  pop\n  mload(0x40)\n  sub(codesize, bytecodeSize)\n  dup1\n  bytecodeSize\n  dup4\n  codecopy\n  dup2\n  dup2\n  add\n  0x40\n  mstore\n  dup2\n  add\n  swap1\n  tag_2\n  swap2\n  swap1\n  tag_3\n  jump\t// in\ntag_2:\n    /* \"axbot/Receiver.sol\":575:583  _gateway */\n  dup2\n    /* \"@axelar-network/axelar-gmp-sdk-solidity/contracts/executable/AxelarExecutable.sol\":362:363  0 */\n  0x00\n    /* \"@axelar-network/axelar-gmp-sdk-solidity/contracts/executable/AxelarExecutable.sol\":342:364  gateway_ == address(0) */\n  0xffffffffffffffffffffffffffffffffffffffff\n  and\n    /* \"@axelar-network/axelar-gmp-sdk-solidity/contracts/executable/AxelarExecutable.sol\":342:350  gateway_ */\n  dup2\n    /* \"@axelar-network/axelar-gmp-sdk-solidity/contracts/executable/AxelarExecutable.sol\":342:364  gateway_ == address(0) */\n  0xffffffffffffffffffffffffffffffffffffffff\n  and\n  sub\n    /* \"@axelar-network/axelar-gmp-sdk-solidity/contracts/executable/AxelarExecutable.sol\":338:389  if (gateway_ == address(0)) revert InvalidAddress() */\n  tag_7\n  jumpi\n    /* \"@axelar-network/axelar-gmp-sdk-solidity/contracts/executable/AxelarExecutable.sol\":373:389  InvalidAddress() */\n  mload(0x40)\n  0xe6c4247b00000000000000000000000000000000000000000000000000000000\n  dup2\n  mstore\n  0x04\n  add\n  mload(0x40)\n  dup1\n  swap2\n  sub\n  swap1\n  revert\n    /* \"@axelar-network/axelar-gmp-sdk-solidity/contracts/executable/AxelarExecutable.sol\":338:389  if (gateway_ == address(0)) revert InvalidAddress() */\ntag_7:\n    /* \"@axelar-network/axelar-gmp-sdk-solidity/contracts/executable/AxelarExecutable.sol\":425:433  gateway_ */\n  dup1\n    /* \"@axelar-network/axelar-gmp-sdk-solidity/contracts/executable/AxelarExecutable.sol\":400:434  gateway = IAxelarGateway(gateway_) */\n  0xffffffffffffffffffffffffffffffffffffffff\n  and\n  0x80\n  dup2\n  0xffffffffffffffffffffffffffffffffffffffff\n  and\n  dup2\n  mstore\n  pop\n  pop\n    /* \"@axelar-network/axelar-gmp-sdk-solidity/contracts/executable/AxelarExecutable.sol\":298:441  constructor(address gateway_) {... */\n  pop\n    /* \"axbot/Receiver.sol\":632:644  _gasReceiver */\n  dup1\n    /* \"axbot/Receiver.sol\":601:645  gasService = IAxelarGasService(_gasReceiver) */\n  0xffffffffffffffffffffffffffffffffffffffff\n  and\n  0xa0\n  dup2\n  0xffffffffffffffffffffffffffffffffffffffff\n  and\n  dup2\n  mstore\n  pop\n  pop\n    /* \"axbot/Receiver.sol\":497:653  constructor(address _gateway, address _gasReceiver)... */\n  pop\n  pop\n    /* \"axbot/Receiver.sol\":394:1126  contract ERC20ReceiverEscrow is AxelarExecutable {... */\n  jump(tag_9)\n    /* \"#utility.yul\":88:205   */\ntag_11:\n    /* \"#utility.yul\":197:198   */\n  0x00\n    /* \"#utility.yul\":194:195   */\n  dup1\n    /* \"#utility.yul\":187:199   */\n  revert\n    /* \"#utility.yul\":334:460   */\ntag_13:\n    /* \"#utility.yul\":371:378   */\n  0x00\n    /* \"#utility.yul\":411:453   */\n  0xffffffffffffffffffffffffffffffffffffffff\n    /* \"#utility.yul\":404:409   */\n  dup3\n    /* \"#utility.yul\":400:454   */\n  and\n    /* \"#utility.yul\":389:454   */\n  swap1\n  pop\n    /* \"#utility.yul\":334:460   */\n  swap2\n  swap1\n  pop\n  jump\t// out\n    /* \"#utility.yul\":466:562   */\ntag_14:\n    /* \"#utility.yul\":503:510   */\n  0x00\n    /* \"#utility.yul\":532:556   */\n  tag_23\n    /* \"#utility.yul\":550:555   */\n  dup3\n    /* \"#utility.yul\":532:556   */\n  tag_13\n  jump\t// in\ntag_23:\n    /* \"#utility.yul\":521:556   */\n  swap1\n  pop\n    /* \"#utility.yul\":466:562   */\n  swap2\n  swap1\n  pop\n  jump\t// out\n    /* \"#utility.yul\":568:690   */\ntag_15:\n    /* \"#utility.yul\":641:665   */\n  tag_25\n    /* \"#utility.yul\":659:664   */\n  dup2\n    /* \"#utility.yul\":641:665   */\n  tag_14\n  jump\t// in\ntag_25:\n    /* \"#utility.yul\":634:639   */\n  dup2\n    /* \"#utility.yul\":631:666   */\n  eq\n    /* \"#utility.yul\":621:684   */\n  tag_26\n  jumpi\n    /* \"#utility.yul\":680:681   */\n  0x00\n    /* \"#utility.yul\":677:678   */\n  dup1\n    /* \"#utility.yul\":670:682   */\n  revert\n    /* \"#utility.yul\":621:684   */\ntag_26:\n    /* \"#utility.yul\":568:690   */\n  pop\n  jump\t// out\n    /* \"#utility.yul\":696:839   */\ntag_16:\n    /* \"#utility.yul\":753:758   */\n  0x00\n    /* \"#utility.yul\":784:790   */\n  dup2\n    /* \"#utility.yul\":778:791   */\n  mload\n    /* \"#utility.yul\":769:791   */\n  swap1\n  pop\n    /* \"#utility.yul\":800:833   */\n  tag_28\n    /* \"#utility.yul\":827:832   */\n  dup2\n    /* \"#utility.yul\":800:833   */\n  tag_15\n  jump\t// in\ntag_28:\n    /* \"#utility.yul\":696:839   */\n  swap3\n  swap2\n  pop\n  pop\n  jump\t// out\n    /* \"#utility.yul\":845:1352   */\ntag_3:\n    /* \"#utility.yul\":924:930   */\n  0x00\n    /* \"#utility.yul\":932:938   */\n  dup1\n    /* \"#utility.yul\":981:983   */\n  0x40\n    /* \"#utility.yul\":969:978   */\n  dup4\n    /* \"#utility.yul\":960:967   */\n  dup6\n    /* \"#utility.yul\":956:979   */\n  sub\n    /* \"#utility.yul\":952:984   */\n  slt\n    /* \"#utility.yul\":949:1068   */\n  iszero\n  tag_30\n  jumpi\n    /* \"#utility.yul\":987:1066   */\n  tag_31\n  tag_11\n  jump\t// in\ntag_31:\n    /* \"#utility.yul\":949:1068   */\ntag_30:\n    /* \"#utility.yul\":1107:1108   */\n  0x00\n    /* \"#utility.yul\":1132:1196   */\n  tag_32\n    /* \"#utility.yul\":1188:1195   */\n  dup6\n    /* \"#utility.yul\":1179:1185   */\n  dup3\n    /* \"#utility.yul\":1168:1177   */\n  dup7\n    /* \"#utility.yul\":1164:1186   */\n  add\n    /* \"#utility.yul\":1132:1196   */\n  tag_16\n  jump\t// in\ntag_32:\n    /* \"#utility.yul\":1122:1196   */\n  swap3\n  pop\n    /* \"#utility.yul\":1078:1206   */\n  pop\n    /* \"#utility.yul\":1245:1247   */\n  0x20\n    /* \"#utility.yul\":1271:1335   */\n  tag_33\n    /* \"#utility.yul\":1327:1334   */\n  dup6\n    /* \"#utility.yul\":1318:1324   */\n  dup3\n    /* \"#utility.yul\":1307:1316   */\n  dup7\n    /* \"#utility.yul\":1303:1325   */\n  add\n    /* \"#utility.yul\":1271:1335   */\n  tag_16\n  jump\t// in\ntag_33:\n    /* \"#utility.yul\":1261:1335   */\n  swap2\n  pop\n    /* \"#utility.yul\":1216:1345   */\n  pop\n    /* \"#utility.yul\":845:1352   */\n  swap3\n  pop\n  swap3\n  swap1\n  pop\n  jump\t// out\n    /* \"axbot/Receiver.sol\":394:1126  contract ERC20ReceiverEscrow is AxelarExecutable {... */\ntag_9:\n  mload(0x80)\n  mload(0xa0)\n  codecopy(0x00, dataOffset(sub_0), dataSize(sub_0))\n  0x00\n  assignImmutable(\"0x5d40e99405081227bb9ff3dfcb5688bebff2335619d1e80403a820b0e682b492\")\n  0x00\n  assignImmutable(\"0x1a192fabce13988b84994d4296e6cdc418d55e2f1d7f942188d4040b94fc57ac\")\n  return(0x00, dataSize(sub_0))\nstop\n\nsub_0: assembly {\n        /* \"axbot/Receiver.sol\":394:1126  contract ERC20ReceiverEscrow is AxelarExecutable {... */\n      mstore(0x40, 0x80)\n      callvalue\n      dup1\n      iszero\n      tag_1\n      jumpi\n      0x00\n      dup1\n      revert\n    tag_1:\n      pop\n      jumpi(tag_2, lt(calldatasize, 0x04))\n      shr(0xe0, calldataload(0x00))\n      dup1\n      0x116191b6\n      eq\n      tag_3\n      jumpi\n      dup1\n      0x1a98b2e0\n      eq\n      tag_4\n      jumpi\n      dup1\n      0x49160658\n      eq\n      tag_5\n      jumpi\n    tag_2:\n      0x00\n      dup1\n      revert\n        /* \"@axelar-network/axelar-gmp-sdk-solidity/contracts/executable/AxelarExecutable.sol\":252:291  IAxelarGateway public immutable gateway */\n    tag_3:\n      tag_6\n      tag_7\n      jump\t// in\n    tag_6:\n      mload(0x40)\n      tag_8\n      swap2\n      swap1\n      tag_9\n      jump\t// in\n    tag_8:\n      mload(0x40)\n      dup1\n      swap2\n      sub\n      swap1\n      return\n        /* \"@axelar-network/axelar-gmp-sdk-solidity/contracts/executable/AxelarExecutable.sol\":872:1539  function executeWithToken(... */\n    tag_4:\n      tag_10\n      0x04\n      dup1\n      calldatasize\n      sub\n      dup2\n      add\n      swap1\n      tag_11\n      swap2\n      swap1\n      tag_12\n      jump\t// in\n    tag_11:\n      tag_13\n      jump\t// in\n    tag_10:\n      stop\n        /* \"@axelar-network/axelar-gmp-sdk-solidity/contracts/executable/AxelarExecutable.sol\":447:866  function execute(... */\n    tag_5:\n      tag_14\n      0x04\n      dup1\n      calldatasize\n      sub\n      dup2\n      add\n      swap1\n      tag_15\n      swap2\n      swap1\n      tag_16\n      jump\t// in\n    tag_15:\n      tag_17\n      jump\t// in\n    tag_14:\n      stop\n        /* \"@axelar-network/axelar-gmp-sdk-solidity/contracts/executable/AxelarExecutable.sol\":252:291  IAxelarGateway public immutable gateway */\n    tag_7:\n      immutable(\"0x1a192fabce13988b84994d4296e6cdc418d55e2f1d7f942188d4040b94fc57ac\")\n      dup2\n      jump\t// out\n        /* \"@axelar-network/axelar-gmp-sdk-solidity/contracts/executable/AxelarExecutable.sol\":872:1539  function executeWithToken(... */\n    tag_13:\n        /* \"@axelar-network/axelar-gmp-sdk-solidity/contracts/executable/AxelarExecutable.sol\":1119:1138  bytes32 payloadHash */\n      0x00\n        /* \"@axelar-network/axelar-gmp-sdk-solidity/contracts/executable/AxelarExecutable.sol\":1151:1158  payload */\n      dup6\n      dup6\n        /* \"@axelar-network/axelar-gmp-sdk-solidity/contracts/executable/AxelarExecutable.sol\":1141:1159  keccak256(payload) */\n      mload(0x40)\n      tag_19\n      swap3\n      swap2\n      swap1\n      tag_20\n      jump\t// in\n    tag_19:\n      mload(0x40)\n      dup1\n      swap2\n      sub\n      swap1\n      keccak256\n        /* \"@axelar-network/axelar-gmp-sdk-solidity/contracts/executable/AxelarExecutable.sol\":1119:1159  bytes32 payloadHash = keccak256(payload) */\n      swap1\n      pop\n        /* \"@axelar-network/axelar-gmp-sdk-solidity/contracts/executable/AxelarExecutable.sol\":1188:1195  gateway */\n      immutable(\"0x1a192fabce13988b84994d4296e6cdc418d55e2f1d7f942188d4040b94fc57ac\")\n        /* \"@axelar-network/axelar-gmp-sdk-solidity/contracts/executable/AxelarExecutable.sol\":1188:1223  gateway.validateContractCallAndMint */\n      0xffffffffffffffffffffffffffffffffffffffff\n      and\n      0x1876eed9\n        /* \"@axelar-network/axelar-gmp-sdk-solidity/contracts/executable/AxelarExecutable.sol\":1241:1250  commandId */\n      dup13\n        /* \"@axelar-network/axelar-gmp-sdk-solidity/contracts/executable/AxelarExecutable.sol\":1268:1279  sourceChain */\n      dup13\n      dup13\n        /* \"@axelar-network/axelar-gmp-sdk-solidity/contracts/executable/AxelarExecutable.sol\":1297:1310  sourceAddress */\n      dup13\n      dup13\n        /* \"@axelar-network/axelar-gmp-sdk-solidity/contracts/executable/AxelarExecutable.sol\":1328:1339  payloadHash */\n      dup8\n        /* \"@axelar-network/axelar-gmp-sdk-solidity/contracts/executable/AxelarExecutable.sol\":1357:1368  tokenSymbol */\n      dup12\n      dup12\n        /* \"@axelar-network/axelar-gmp-sdk-solidity/contracts/executable/AxelarExecutable.sol\":1386:1392  amount */\n      dup12\n        /* \"@axelar-network/axelar-gmp-sdk-solidity/contracts/executable/AxelarExecutable.sol\":1188:1406  gateway.validateContractCallAndMint(... */\n      mload(0x40)\n      dup11\n      0xffffffff\n      and\n      0xe0\n      shl\n      dup2\n      mstore\n      0x04\n      add\n      tag_21\n      swap10\n      swap9\n      swap8\n      swap7\n      swap6\n      swap5\n      swap4\n      swap3\n      swap2\n      swap1\n      tag_22\n      jump\t// in\n    tag_21:\n      0x20\n      mload(0x40)\n      dup1\n      dup4\n      sub\n      dup2\n      0x00\n      dup8\n      gas\n      call\n      iszero\n      dup1\n      iszero\n      tag_24\n      jumpi\n      returndatasize\n      0x00\n      dup1\n      returndatacopy\n      revert(0x00, returndatasize)\n    tag_24:\n      pop\n      pop\n      pop\n      pop\n      mload(0x40)\n      returndatasize\n      not(0x1f)\n      0x1f\n      dup3\n      add\n      and\n      dup3\n      add\n      dup1\n      0x40\n      mstore\n      pop\n      dup2\n      add\n      swap1\n      tag_25\n      swap2\n      swap1\n      tag_26\n      jump\t// in\n    tag_25:\n        /* \"@axelar-network/axelar-gmp-sdk-solidity/contracts/executable/AxelarExecutable.sol\":1170:1446  if (... */\n      tag_27\n      jumpi\n        /* \"@axelar-network/axelar-gmp-sdk-solidity/contracts/executable/AxelarExecutable.sol\":1424:1446  NotApprovedByGateway() */\n      mload(0x40)\n      0x500c44b400000000000000000000000000000000000000000000000000000000\n      dup2\n      mstore\n      0x04\n      add\n      mload(0x40)\n      dup1\n      swap2\n      sub\n      swap1\n      revert\n        /* \"@axelar-network/axelar-gmp-sdk-solidity/contracts/executable/AxelarExecutable.sol\":1170:1446  if (... */\n    tag_27:\n        /* \"@axelar-network/axelar-gmp-sdk-solidity/contracts/executable/AxelarExecutable.sol\":1457:1532  _executeWithToken(sourceChain, sourceAddress, payload, tokenSymbol, amount) */\n      tag_28\n        /* \"@axelar-network/axelar-gmp-sdk-solidity/contracts/executable/AxelarExecutable.sol\":1475:1486  sourceChain */\n      dup11\n      dup11\n        /* \"@axelar-network/axelar-gmp-sdk-solidity/contracts/executable/AxelarExecutable.sol\":1488:1501  sourceAddress */\n      dup11\n      dup11\n        /* \"@axelar-network/axelar-gmp-sdk-solidity/contracts/executable/AxelarExecutable.sol\":1503:1510  payload */\n      dup11\n      dup11\n        /* \"@axelar-network/axelar-gmp-sdk-solidity/contracts/executable/AxelarExecutable.sol\":1512:1523  tokenSymbol */\n      dup11\n      dup11\n        /* \"@axelar-network/axelar-gmp-sdk-solidity/contracts/executable/AxelarExecutable.sol\":1525:1531  amount */\n      dup11\n        /* \"@axelar-network/axelar-gmp-sdk-solidity/contracts/executable/AxelarExecutable.sol\":1457:1474  _executeWithToken */\n      tag_29\n        /* \"@axelar-network/axelar-gmp-sdk-solidity/contracts/executable/AxelarExecutable.sol\":1457:1532  _executeWithToken(sourceChain, sourceAddress, payload, tokenSymbol, amount) */\n      jump\t// in\n    tag_28:\n        /* \"@axelar-network/axelar-gmp-sdk-solidity/contracts/executable/AxelarExecutable.sol\":1109:1539  {... */\n      pop\n        /* \"@axelar-network/axelar-gmp-sdk-solidity/contracts/executable/AxelarExecutable.sol\":872:1539  function executeWithToken(... */\n      pop\n      pop\n      pop\n      pop\n      pop\n      pop\n      pop\n      pop\n      pop\n      pop\n      jump\t// out\n        /* \"@axelar-network/axelar-gmp-sdk-solidity/contracts/executable/AxelarExecutable.sol\":447:866  function execute(... */\n    tag_17:\n        /* \"@axelar-network/axelar-gmp-sdk-solidity/contracts/executable/AxelarExecutable.sol\":624:643  bytes32 payloadHash */\n      0x00\n        /* \"@axelar-network/axelar-gmp-sdk-solidity/contracts/executable/AxelarExecutable.sol\":656:663  payload */\n      dup3\n      dup3\n        /* \"@axelar-network/axelar-gmp-sdk-solidity/contracts/executable/AxelarExecutable.sol\":646:664  keccak256(payload) */\n      mload(0x40)\n      tag_31\n      swap3\n      swap2\n      swap1\n      tag_20\n      jump\t// in\n    tag_31:\n      mload(0x40)\n      dup1\n      swap2\n      sub\n      swap1\n      keccak256\n        /* \"@axelar-network/axelar-gmp-sdk-solidity/contracts/executable/AxelarExecutable.sol\":624:664  bytes32 payloadHash = keccak256(payload) */\n      swap1\n      pop\n        /* \"@axelar-network/axelar-gmp-sdk-solidity/contracts/executable/AxelarExecutable.sol\":680:687  gateway */\n      immutable(\"0x1a192fabce13988b84994d4296e6cdc418d55e2f1d7f942188d4040b94fc57ac\")\n        /* \"@axelar-network/axelar-gmp-sdk-solidity/contracts/executable/AxelarExecutable.sol\":680:708  gateway.validateContractCall */\n      0xffffffffffffffffffffffffffffffffffffffff\n      and\n      0x5f6970c3\n        /* \"@axelar-network/axelar-gmp-sdk-solidity/contracts/executable/AxelarExecutable.sol\":709:718  commandId */\n      dup10\n        /* \"@axelar-network/axelar-gmp-sdk-solidity/contracts/executable/AxelarExecutable.sol\":720:731  sourceChain */\n      dup10\n      dup10\n        /* \"@axelar-network/axelar-gmp-sdk-solidity/contracts/executable/AxelarExecutable.sol\":733:746  sourceAddress */\n      dup10\n      dup10\n        /* \"@axelar-network/axelar-gmp-sdk-solidity/contracts/executable/AxelarExecutable.sol\":748:759  payloadHash */\n      dup8\n        /* \"@axelar-network/axelar-gmp-sdk-solidity/contracts/executable/AxelarExecutable.sol\":680:760  gateway.validateContractCall(commandId, sourceChain, sourceAddress, payloadHash) */\n      mload(0x40)\n      dup8\n      0xffffffff\n      and\n      0xe0\n      shl\n      dup2\n      mstore\n      0x04\n      add\n      tag_32\n      swap7\n      swap6\n      swap5\n      swap4\n      swap3\n      swap2\n      swap1\n      tag_33\n      jump\t// in\n    tag_32:\n      0x20\n      mload(0x40)\n      dup1\n      dup4\n      sub\n      dup2\n      0x00\n      dup8\n      gas\n      call\n      iszero\n      dup1\n      iszero\n      tag_35\n      jumpi\n      returndatasize\n      0x00\n      dup1\n      returndatacopy\n      revert(0x00, returndatasize)\n    tag_35:\n      pop\n      pop\n      pop\n      pop\n      mload(0x40)\n      returndatasize\n      not(0x1f)\n      0x1f\n      dup3\n      add\n      and\n      dup3\n      add\n      dup1\n      0x40\n      mstore\n      pop\n      dup2\n      add\n      swap1\n      tag_36\n      swap2\n      swap1\n      tag_26\n      jump\t// in\n    tag_36:\n        /* \"@axelar-network/axelar-gmp-sdk-solidity/contracts/executable/AxelarExecutable.sol\":675:803  if (!gateway.validateContractCall(commandId, sourceChain, sourceAddress, payloadHash))... */\n      tag_37\n      jumpi\n        /* \"@axelar-network/axelar-gmp-sdk-solidity/contracts/executable/AxelarExecutable.sol\":781:803  NotApprovedByGateway() */\n      mload(0x40)\n      0x500c44b400000000000000000000000000000000000000000000000000000000\n      dup2\n      mstore\n      0x04\n      add\n      mload(0x40)\n      dup1\n      swap2\n      sub\n      swap1\n      revert\n        /* \"@axelar-network/axelar-gmp-sdk-solidity/contracts/executable/AxelarExecutable.sol\":675:803  if (!gateway.validateContractCall(commandId, sourceChain, sourceAddress, payloadHash))... */\n    tag_37:\n        /* \"@axelar-network/axelar-gmp-sdk-solidity/contracts/executable/AxelarExecutable.sol\":814:859  _execute(sourceChain, sourceAddress, payload) */\n      tag_38\n        /* \"@axelar-network/axelar-gmp-sdk-solidity/contracts/executable/AxelarExecutable.sol\":823:834  sourceChain */\n      dup8\n      dup8\n        /* \"@axelar-network/axelar-gmp-sdk-solidity/contracts/executable/AxelarExecutable.sol\":836:849  sourceAddress */\n      dup8\n      dup8\n        /* \"@axelar-network/axelar-gmp-sdk-solidity/contracts/executable/AxelarExecutable.sol\":851:858  payload */\n      dup8\n      dup8\n        /* \"@axelar-network/axelar-gmp-sdk-solidity/contracts/executable/AxelarExecutable.sol\":814:822  _execute */\n      tag_39\n        /* \"@axelar-network/axelar-gmp-sdk-solidity/contracts/executable/AxelarExecutable.sol\":814:859  _execute(sourceChain, sourceAddress, payload) */\n      jump\t// in\n    tag_38:\n        /* \"@axelar-network/axelar-gmp-sdk-solidity/contracts/executable/AxelarExecutable.sol\":614:866  {... */\n      pop\n        /* \"@axelar-network/axelar-gmp-sdk-solidity/contracts/executable/AxelarExecutable.sol\":447:866  function execute(... */\n      pop\n      pop\n      pop\n      pop\n      pop\n      pop\n      pop\n      jump\t// out\n        /* \"axbot/Receiver.sol\":686:1111  function _executeWithToken(... */\n    tag_29:\n        /* \"axbot/Receiver.sol\":897:913  address receiver */\n      0x00\n        /* \"axbot/Receiver.sol\":927:934  payload */\n      dup6\n      dup6\n        /* \"axbot/Receiver.sol\":916:946  abi.decode(payload, (address)) */\n      dup2\n      add\n      swap1\n      tag_41\n      swap2\n      swap1\n      tag_42\n      jump\t// in\n    tag_41:\n        /* \"axbot/Receiver.sol\":897:946  address receiver = abi.decode(payload, (address)) */\n      swap1\n      pop\n        /* \"axbot/Receiver.sol\":957:977  address tokenAddress */\n      0x00\n        /* \"axbot/Receiver.sol\":980:987  gateway */\n      immutable(\"0x1a192fabce13988b84994d4296e6cdc418d55e2f1d7f942188d4040b94fc57ac\")\n        /* \"axbot/Receiver.sol\":980:1002  gateway.tokenAddresses */\n      0xffffffffffffffffffffffffffffffffffffffff\n      and\n      0x935b13f6\n        /* \"axbot/Receiver.sol\":1003:1014  tokenSymbol */\n      dup7\n      dup7\n        /* \"axbot/Receiver.sol\":980:1015  gateway.tokenAddresses(tokenSymbol) */\n      mload(0x40)\n      dup4\n      0xffffffff\n      and\n      0xe0\n      shl\n      dup2\n      mstore\n      0x04\n      add\n      tag_43\n      swap3\n      swap2\n      swap1\n      tag_44\n      jump\t// in\n    tag_43:\n      0x20\n      mload(0x40)\n      dup1\n      dup4\n      sub\n      dup2\n      dup7\n      gas\n      staticcall\n      iszero\n      dup1\n      iszero\n      tag_46\n      jumpi\n      returndatasize\n      0x00\n      dup1\n      returndatacopy\n      revert(0x00, returndatasize)\n    tag_46:\n      pop\n      pop\n      pop\n      pop\n      mload(0x40)\n      returndatasize\n      not(0x1f)\n      0x1f\n      dup3\n      add\n      and\n      dup3\n      add\n      dup1\n      0x40\n      mstore\n      pop\n      dup2\n      add\n      swap1\n      tag_47\n      swap2\n      swap1\n      tag_48\n      jump\t// in\n    tag_47:\n        /* \"axbot/Receiver.sol\":957:1015  address tokenAddress = gateway.tokenAddresses(tokenSymbol) */\n      swap1\n      pop\n        /* \"axbot/Receiver.sol\":1033:1045  tokenAddress */\n      dup1\n        /* \"axbot/Receiver.sol\":1026:1055  IERC20(tokenAddress).transfer */\n      0xffffffffffffffffffffffffffffffffffffffff\n      and\n      0xa9059cbb\n        /* \"axbot/Receiver.sol\":1056:1064  receiver */\n      dup4\n        /* \"axbot/Receiver.sol\":1066:1072  amount */\n      dup6\n        /* \"axbot/Receiver.sol\":1026:1073  IERC20(tokenAddress).transfer(receiver, amount) */\n      mload(0x40)\n      dup4\n      0xffffffff\n      and\n      0xe0\n      shl\n      dup2\n      mstore\n      0x04\n      add\n      tag_49\n      swap3\n      swap2\n      swap1\n      tag_50\n      jump\t// in\n    tag_49:\n      0x20\n      mload(0x40)\n      dup1\n      dup4\n      sub\n      dup2\n      0x00\n      dup8\n      gas\n      call\n      iszero\n      dup1\n      iszero\n      tag_52\n      jumpi\n      returndatasize\n      0x00\n      dup1\n      returndatacopy\n      revert(0x00, returndatasize)\n    tag_52:\n      pop\n      pop\n      pop\n      pop\n      mload(0x40)\n      returndatasize\n      not(0x1f)\n      0x1f\n      dup3\n      add\n      and\n      dup3\n      add\n      dup1\n      0x40\n      mstore\n      pop\n      dup2\n      add\n      swap1\n      tag_53\n      swap2\n      swap1\n      tag_26\n      jump\t// in\n    tag_53:\n      pop\n        /* \"axbot/Receiver.sol\":1089:1099  Executed() */\n      0x68f46c45a243a0e9065a97649faf9a5afe1692f2679e650c2f853b9cd734cc0e\n      mload(0x40)\n      mload(0x40)\n      dup1\n      swap2\n      sub\n      swap1\n      log1\n        /* \"axbot/Receiver.sol\":886:1111  {... */\n      pop\n      pop\n        /* \"axbot/Receiver.sol\":686:1111  function _executeWithToken(... */\n      pop\n      pop\n      pop\n      pop\n      pop\n      pop\n      pop\n      pop\n      pop\n      jump\t// out\n        /* \"@axelar-network/axelar-gmp-sdk-solidity/contracts/executable/AxelarExecutable.sol\":1545:1696  function _execute(... */\n    tag_39:\n      pop\n      pop\n      pop\n      pop\n      pop\n      pop\n      jump\t// out\n        /* \"#utility.yul\":7:133   */\n    tag_55:\n        /* \"#utility.yul\":44:51   */\n      0x00\n        /* \"#utility.yul\":84:126   */\n      0xffffffffffffffffffffffffffffffffffffffff\n        /* \"#utility.yul\":77:82   */\n      dup3\n        /* \"#utility.yul\":73:127   */\n      and\n        /* \"#utility.yul\":62:127   */\n      swap1\n      pop\n        /* \"#utility.yul\":7:133   */\n      swap2\n      swap1\n      pop\n      jump\t// out\n        /* \"#utility.yul\":139:199   */\n    tag_56:\n        /* \"#utility.yul\":167:170   */\n      0x00\n        /* \"#utility.yul\":188:193   */\n      dup2\n        /* \"#utility.yul\":181:193   */\n      swap1\n      pop\n        /* \"#utility.yul\":139:199   */\n      swap2\n      swap1\n      pop\n      jump\t// out\n        /* \"#utility.yul\":205:347   */\n    tag_57:\n        /* \"#utility.yul\":255:264   */\n      0x00\n        /* \"#utility.yul\":288:341   */\n      tag_97\n        /* \"#utility.yul\":306:340   */\n      tag_98\n        /* \"#utility.yul\":315:339   */\n      tag_99\n        /* \"#utility.yul\":333:338   */\n      dup5\n        /* \"#utility.yul\":315:339   */\n      tag_55\n      jump\t// in\n    tag_99:\n        /* \"#utility.yul\":306:340   */\n      tag_56\n      jump\t// in\n    tag_98:\n        /* \"#utility.yul\":288:341   */\n      tag_55\n      jump\t// in\n    tag_97:\n        /* \"#utility.yul\":275:341   */\n      swap1\n      pop\n        /* \"#utility.yul\":205:347   */\n      swap2\n      swap1\n      pop\n      jump\t// out\n        /* \"#utility.yul\":353:479   */\n    tag_58:\n        /* \"#utility.yul\":403:412   */\n      0x00\n        /* \"#utility.yul\":436:473   */\n      tag_101\n        /* \"#utility.yul\":467:472   */\n      dup3\n        /* \"#utility.yul\":436:473   */\n      tag_57\n      jump\t// in\n    tag_101:\n        /* \"#utility.yul\":423:473   */\n      swap1\n      pop\n        /* \"#utility.yul\":353:479   */\n      swap2\n      swap1\n      pop\n      jump\t// out\n        /* \"#utility.yul\":485:633   */\n    tag_59:\n        /* \"#utility.yul\":557:566   */\n      0x00\n        /* \"#utility.yul\":590:627   */\n      tag_103\n        /* \"#utility.yul\":621:626   */\n      dup3\n        /* \"#utility.yul\":590:627   */\n      tag_58\n      jump\t// in\n    tag_103:\n        /* \"#utility.yul\":577:627   */\n      swap1\n      pop\n        /* \"#utility.yul\":485:633   */\n      swap2\n      swap1\n      pop\n      jump\t// out\n        /* \"#utility.yul\":639:814   */\n    tag_60:\n        /* \"#utility.yul\":748:807   */\n      tag_105\n        /* \"#utility.yul\":801:806   */\n      dup2\n        /* \"#utility.yul\":748:807   */\n      tag_59\n      jump\t// in\n    tag_105:\n        /* \"#utility.yul\":743:746   */\n      dup3\n        /* \"#utility.yul\":736:808   */\n      mstore\n        /* \"#utility.yul\":639:814   */\n      pop\n      pop\n      jump\t// out\n        /* \"#utility.yul\":820:1086   */\n    tag_9:\n        /* \"#utility.yul\":935:939   */\n      0x00\n        /* \"#utility.yul\":973:975   */\n      0x20\n        /* \"#utility.yul\":962:971   */\n      dup3\n        /* \"#utility.yul\":958:976   */\n      add\n        /* \"#utility.yul\":950:976   */\n      swap1\n      pop\n        /* \"#utility.yul\":986:1079   */\n      tag_107\n        /* \"#utility.yul\":1076:1077   */\n      0x00\n        /* \"#utility.yul\":1065:1074   */\n      dup4\n        /* \"#utility.yul\":1061:1078   */\n      add\n        /* \"#utility.yul\":1052:1058   */\n      dup5\n        /* \"#utility.yul\":986:1079   */\n      tag_60\n      jump\t// in\n    tag_107:\n        /* \"#utility.yul\":820:1086   */\n      swap3\n      swap2\n      pop\n      pop\n      jump\t// out\n        /* \"#utility.yul\":1173:1290   */\n    tag_62:\n        /* \"#utility.yul\":1282:1283   */\n      0x00\n        /* \"#utility.yul\":1279:1280   */\n      dup1\n        /* \"#utility.yul\":1272:1284   */\n      revert\n        /* \"#utility.yul\":1296:1413   */\n    tag_63:\n        /* \"#utility.yul\":1405:1406   */\n      0x00\n        /* \"#utility.yul\":1402:1403   */\n      dup1\n        /* \"#utility.yul\":1395:1407   */\n      revert\n        /* \"#utility.yul\":1419:1496   */\n    tag_64:\n        /* \"#utility.yul\":1456:1463   */\n      0x00\n        /* \"#utility.yul\":1485:1490   */\n      dup2\n        /* \"#utility.yul\":1474:1490   */\n      swap1\n      pop\n        /* \"#utility.yul\":1419:1496   */\n      swap2\n      swap1\n      pop\n      jump\t// out\n        /* \"#utility.yul\":1502:1624   */\n    tag_65:\n        /* \"#utility.yul\":1575:1599   */\n      tag_113\n        /* \"#utility.yul\":1593:1598   */\n      dup2\n        /* \"#utility.yul\":1575:1599   */\n      tag_64\n      jump\t// in\n    tag_113:\n        /* \"#utility.yul\":1568:1573   */\n      dup2\n        /* \"#utility.yul\":1565:1600   */\n      eq\n        /* \"#utility.yul\":1555:1618   */\n      tag_114\n      jumpi\n        /* \"#utility.yul\":1614:1615   */\n      0x00\n        /* \"#utility.yul\":1611:1612   */\n      dup1\n        /* \"#utility.yul\":1604:1616   */\n      revert\n        /* \"#utility.yul\":1555:1618   */\n    tag_114:\n        /* \"#utility.yul\":1502:1624   */\n      pop\n      jump\t// out\n        /* \"#utility.yul\":1630:1769   */\n    tag_66:\n        /* \"#utility.yul\":1676:1681   */\n      0x00\n        /* \"#utility.yul\":1714:1720   */\n      dup2\n        /* \"#utility.yul\":1701:1721   */\n      calldataload\n        /* \"#utility.yul\":1692:1721   */\n      swap1\n      pop\n        /* \"#utility.yul\":1730:1763   */\n      tag_116\n        /* \"#utility.yul\":1757:1762   */\n      dup2\n        /* \"#utility.yul\":1730:1763   */\n      tag_65\n      jump\t// in\n    tag_116:\n        /* \"#utility.yul\":1630:1769   */\n      swap3\n      swap2\n      pop\n      pop\n      jump\t// out\n        /* \"#utility.yul\":1775:1892   */\n    tag_67:\n        /* \"#utility.yul\":1884:1885   */\n      0x00\n        /* \"#utility.yul\":1881:1882   */\n      dup1\n        /* \"#utility.yul\":1874:1886   */\n      revert\n        /* \"#utility.yul\":1898:2015   */\n    tag_68:\n        /* \"#utility.yul\":2007:2008   */\n      0x00\n        /* \"#utility.yul\":2004:2005   */\n      dup1\n        /* \"#utility.yul\":1997:2009   */\n      revert\n        /* \"#utility.yul\":2021:2138   */\n    tag_69:\n        /* \"#utility.yul\":2130:2131   */\n      0x00\n        /* \"#utility.yul\":2127:2128   */\n      dup1\n        /* \"#utility.yul\":2120:2132   */\n      revert\n        /* \"#utility.yul\":2158:2711   */\n    tag_70:\n        /* \"#utility.yul\":2216:2224   */\n      0x00\n        /* \"#utility.yul\":2226:2232   */\n      dup1\n        /* \"#utility.yul\":2276:2279   */\n      dup4\n        /* \"#utility.yul\":2269:2273   */\n      0x1f\n        /* \"#utility.yul\":2261:2267   */\n      dup5\n        /* \"#utility.yul\":2257:2274   */\n      add\n        /* \"#utility.yul\":2253:2280   */\n      slt\n        /* \"#utility.yul\":2243:2365   */\n      tag_121\n      jumpi\n        /* \"#utility.yul\":2284:2363   */\n      tag_122\n      tag_67\n      jump\t// in\n    tag_122:\n        /* \"#utility.yul\":2243:2365   */\n    tag_121:\n        /* \"#utility.yul\":2397:2403   */\n      dup3\n        /* \"#utility.yul\":2384:2404   */\n      calldataload\n        /* \"#utility.yul\":2374:2404   */\n      swap1\n      pop\n        /* \"#utility.yul\":2427:2445   */\n      0xffffffffffffffff\n        /* \"#utility.yul\":2419:2425   */\n      dup2\n        /* \"#utility.yul\":2416:2446   */\n      gt\n        /* \"#utility.yul\":2413:2530   */\n      iszero\n      tag_123\n      jumpi\n        /* \"#utility.yul\":2449:2528   */\n      tag_124\n      tag_68\n      jump\t// in\n    tag_124:\n        /* \"#utility.yul\":2413:2530   */\n    tag_123:\n        /* \"#utility.yul\":2563:2567   */\n      0x20\n        /* \"#utility.yul\":2555:2561   */\n      dup4\n        /* \"#utility.yul\":2551:2568   */\n      add\n        /* \"#utility.yul\":2539:2568   */\n      swap2\n      pop\n        /* \"#utility.yul\":2617:2620   */\n      dup4\n        /* \"#utility.yul\":2609:2613   */\n      0x01\n        /* \"#utility.yul\":2601:2607   */\n      dup3\n        /* \"#utility.yul\":2597:2614   */\n      mul\n        /* \"#utility.yul\":2587:2595   */\n      dup4\n        /* \"#utility.yul\":2583:2615   */\n      add\n        /* \"#utility.yul\":2580:2621   */\n      gt\n        /* \"#utility.yul\":2577:2705   */\n      iszero\n      tag_125\n      jumpi\n        /* \"#utility.yul\":2624:2703   */\n      tag_126\n      tag_69\n      jump\t// in\n    tag_126:\n        /* \"#utility.yul\":2577:2705   */\n    tag_125:\n        /* \"#utility.yul\":2158:2711   */\n      swap3\n      pop\n      swap3\n      swap1\n      pop\n      jump\t// out\n        /* \"#utility.yul\":2730:3282   */\n    tag_71:\n        /* \"#utility.yul\":2787:2795   */\n      0x00\n        /* \"#utility.yul\":2797:2803   */\n      dup1\n        /* \"#utility.yul\":2847:2850   */\n      dup4\n        /* \"#utility.yul\":2840:2844   */\n      0x1f\n        /* \"#utility.yul\":2832:2838   */\n      dup5\n        /* \"#utility.yul\":2828:2845   */\n      add\n        /* \"#utility.yul\":2824:2851   */\n      slt\n        /* \"#utility.yul\":2814:2936   */\n      tag_128\n      jumpi\n        /* \"#utility.yul\":2855:2934   */\n      tag_129\n      tag_67\n      jump\t// in\n    tag_129:\n        /* \"#utility.yul\":2814:2936   */\n    tag_128:\n        /* \"#utility.yul\":2968:2974   */\n      dup3\n        /* \"#utility.yul\":2955:2975   */\n      calldataload\n        /* \"#utility.yul\":2945:2975   */\n      swap1\n      pop\n        /* \"#utility.yul\":2998:3016   */\n      0xffffffffffffffff\n        /* \"#utility.yul\":2990:2996   */\n      dup2\n        /* \"#utility.yul\":2987:3017   */\n      gt\n        /* \"#utility.yul\":2984:3101   */\n      iszero\n      tag_130\n      jumpi\n        /* \"#utility.yul\":3020:3099   */\n      tag_131\n      tag_68\n      jump\t// in\n    tag_131:\n        /* \"#utility.yul\":2984:3101   */\n    tag_130:\n        /* \"#utility.yul\":3134:3138   */\n      0x20\n        /* \"#utility.yul\":3126:3132   */\n      dup4\n        /* \"#utility.yul\":3122:3139   */\n      add\n        /* \"#utility.yul\":3110:3139   */\n      swap2\n      pop\n        /* \"#utility.yul\":3188:3191   */\n      dup4\n        /* \"#utility.yul\":3180:3184   */\n      0x01\n        /* \"#utility.yul\":3172:3178   */\n      dup3\n        /* \"#utility.yul\":3168:3185   */\n      mul\n        /* \"#utility.yul\":3158:3166   */\n      dup4\n        /* \"#utility.yul\":3154:3186   */\n      add\n        /* \"#utility.yul\":3151:3192   */\n      gt\n        /* \"#utility.yul\":3148:3276   */\n      iszero\n      tag_132\n      jumpi\n        /* \"#utility.yul\":3195:3274   */\n      tag_133\n      tag_69\n      jump\t// in\n    tag_133:\n        /* \"#utility.yul\":3148:3276   */\n    tag_132:\n        /* \"#utility.yul\":2730:3282   */\n      swap3\n      pop\n      swap3\n      swap1\n      pop\n      jump\t// out\n        /* \"#utility.yul\":3288:3365   */\n    tag_72:\n        /* \"#utility.yul\":3325:3332   */\n      0x00\n        /* \"#utility.yul\":3354:3359   */\n      dup2\n        /* \"#utility.yul\":3343:3359   */\n      swap1\n      pop\n        /* \"#utility.yul\":3288:3365   */\n      swap2\n      swap1\n      pop\n      jump\t// out\n        /* \"#utility.yul\":3371:3493   */\n    tag_73:\n        /* \"#utility.yul\":3444:3468   */\n      tag_136\n        /* \"#utility.yul\":3462:3467   */\n      dup2\n        /* \"#utility.yul\":3444:3468   */\n      tag_72\n      jump\t// in\n    tag_136:\n        /* \"#utility.yul\":3437:3442   */\n      dup2\n        /* \"#utility.yul\":3434:3469   */\n      eq\n        /* \"#utility.yul\":3424:3487   */\n      tag_137\n      jumpi\n        /* \"#utility.yul\":3483:3484   */\n      0x00\n        /* \"#utility.yul\":3480:3481   */\n      dup1\n        /* \"#utility.yul\":3473:3485   */\n      revert\n        /* \"#utility.yul\":3424:3487   */\n    tag_137:\n        /* \"#utility.yul\":3371:3493   */\n      pop\n      jump\t// out\n        /* \"#utility.yul\":3499:3638   */\n    tag_74:\n        /* \"#utility.yul\":3545:3550   */\n      0x00\n        /* \"#utility.yul\":3583:3589   */\n      dup2\n        /* \"#utility.yul\":3570:3590   */\n      calldataload\n        /* \"#utility.yul\":3561:3590   */\n      swap1\n      pop\n        /* \"#utility.yul\":3599:3632   */\n      tag_139\n        /* \"#utility.yul\":3626:3631   */\n      dup2\n        /* \"#utility.yul\":3599:3632   */\n      tag_73\n      jump\t// in\n    tag_139:\n        /* \"#utility.yul\":3499:3638   */\n      swap3\n      swap2\n      pop\n      pop\n      jump\t// out\n        /* \"#utility.yul\":3644:5499   */\n    tag_12:\n        /* \"#utility.yul\":3795:3801   */\n      0x00\n        /* \"#utility.yul\":3803:3809   */\n      dup1\n        /* \"#utility.yul\":3811:3817   */\n      0x00\n        /* \"#utility.yul\":3819:3825   */\n      dup1\n        /* \"#utility.yul\":3827:3833   */\n      0x00\n        /* \"#utility.yul\":3835:3841   */\n      dup1\n        /* \"#utility.yul\":3843:3849   */\n      0x00\n        /* \"#utility.yul\":3851:3857   */\n      dup1\n        /* \"#utility.yul\":3859:3865   */\n      0x00\n        /* \"#utility.yul\":3867:3873   */\n      dup1\n        /* \"#utility.yul\":3916:3919   */\n      0xc0\n        /* \"#utility.yul\":3904:3913   */\n      dup12\n        /* \"#utility.yul\":3895:3902   */\n      dup14\n        /* \"#utility.yul\":3891:3914   */\n      sub\n        /* \"#utility.yul\":3887:3920   */\n      slt\n        /* \"#utility.yul\":3884:4004   */\n      iszero\n      tag_141\n      jumpi\n        /* \"#utility.yul\":3923:4002   */\n      tag_142\n      tag_62\n      jump\t// in\n    tag_142:\n        /* \"#utility.yul\":3884:4004   */\n    tag_141:\n        /* \"#utility.yul\":4043:4044   */\n      0x00\n        /* \"#utility.yul\":4068:4121   */\n      tag_143\n        /* \"#utility.yul\":4113:4120   */\n      dup14\n        /* \"#utility.yul\":4104:4110   */\n      dup3\n        /* \"#utility.yul\":4093:4102   */\n      dup15\n        /* \"#utility.yul\":4089:4111   */\n      add\n        /* \"#utility.yul\":4068:4121   */\n      tag_66\n      jump\t// in\n    tag_143:\n        /* \"#utility.yul\":4058:4121   */\n      swap11\n      pop\n        /* \"#utility.yul\":4014:4131   */\n      pop\n        /* \"#utility.yul\":4198:4200   */\n      0x20\n        /* \"#utility.yul\":4187:4196   */\n      dup12\n        /* \"#utility.yul\":4183:4201   */\n      add\n        /* \"#utility.yul\":4170:4202   */\n      calldataload\n        /* \"#utility.yul\":4229:4247   */\n      0xffffffffffffffff\n        /* \"#utility.yul\":4221:4227   */\n      dup2\n        /* \"#utility.yul\":4218:4248   */\n      gt\n        /* \"#utility.yul\":4215:4332   */\n      iszero\n      tag_144\n      jumpi\n        /* \"#utility.yul\":4251:4330   */\n      tag_145\n      tag_63\n      jump\t// in\n    tag_145:\n        /* \"#utility.yul\":4215:4332   */\n    tag_144:\n        /* \"#utility.yul\":4364:4429   */\n      tag_146\n        /* \"#utility.yul\":4421:4428   */\n      dup14\n        /* \"#utility.yul\":4412:4418   */\n      dup3\n        /* \"#utility.yul\":4401:4410   */\n      dup15\n        /* \"#utility.yul\":4397:4419   */\n      add\n        /* \"#utility.yul\":4364:4429   */\n      tag_70\n      jump\t// in\n    tag_146:\n        /* \"#utility.yul\":4346:4429   */\n      swap10\n      pop\n      swap10\n      pop\n        /* \"#utility.yul\":4141:4439   */\n      pop\n        /* \"#utility.yul\":4506:4508   */\n      0x40\n        /* \"#utility.yul\":4495:4504   */\n      dup12\n        /* \"#utility.yul\":4491:4509   */\n      add\n        /* \"#utility.yul\":4478:4510   */\n      calldataload\n        /* \"#utility.yul\":4537:4555   */\n      0xffffffffffffffff\n        /* \"#utility.yul\":4529:4535   */\n      dup2\n        /* \"#utility.yul\":4526:4556   */\n      gt\n        /* \"#utility.yul\":4523:4640   */\n      iszero\n      tag_147\n      jumpi\n        /* \"#utility.yul\":4559:4638   */\n      tag_148\n      tag_63\n      jump\t// in\n    tag_148:\n        /* \"#utility.yul\":4523:4640   */\n    tag_147:\n        /* \"#utility.yul\":4672:4737   */\n      tag_149\n        /* \"#utility.yul\":4729:4736   */\n      dup14\n        /* \"#utility.yul\":4720:4726   */\n      dup3\n        /* \"#utility.yul\":4709:4718   */\n      dup15\n        /* \"#utility.yul\":4705:4727   */\n      add\n        /* \"#utility.yul\":4672:4737   */\n      tag_70\n      jump\t// in\n    tag_149:\n        /* \"#utility.yul\":4654:4737   */\n      swap8\n      pop\n      swap8\n      pop\n        /* \"#utility.yul\":4449:4747   */\n      pop\n        /* \"#utility.yul\":4814:4816   */\n      0x60\n        /* \"#utility.yul\":4803:4812   */\n      dup12\n        /* \"#utility.yul\":4799:4817   */\n      add\n        /* \"#utility.yul\":4786:4818   */\n      calldataload\n        /* \"#utility.yul\":4845:4863   */\n      0xffffffffffffffff\n        /* \"#utility.yul\":4837:4843   */\n      dup2\n        /* \"#utility.yul\":4834:4864   */\n      gt\n        /* \"#utility.yul\":4831:4948   */\n      iszero\n      tag_150\n      jumpi\n        /* \"#utility.yul\":4867:4946   */\n      tag_151\n      tag_63\n      jump\t// in\n    tag_151:\n        /* \"#utility.yul\":4831:4948   */\n    tag_150:\n        /* \"#utility.yul\":4980:5044   */\n      tag_152\n        /* \"#utility.yul\":5036:5043   */\n      dup14\n        /* \"#utility.yul\":5027:5033   */\n      dup3\n        /* \"#utility.yul\":5016:5025   */\n      dup15\n        /* \"#utility.yul\":5012:5034   */\n      add\n        /* \"#utility.yul\":4980:5044   */\n      tag_71\n      jump\t// in\n    tag_152:\n        /* \"#utility.yul\":4962:5044   */\n      swap6\n      pop\n      swap6\n      pop\n        /* \"#utility.yul\":4757:5054   */\n      pop\n        /* \"#utility.yul\":5121:5124   */\n      0x80\n        /* \"#utility.yul\":5110:5119   */\n      dup12\n        /* \"#utility.yul\":5106:5125   */\n      add\n        /* \"#utility.yul\":5093:5126   */\n      calldataload\n        /* \"#utility.yul\":5153:5171   */\n      0xffffffffffffffff\n        /* \"#utility.yul\":5145:5151   */\n      dup2\n        /* \"#utility.yul\":5142:5172   */\n      gt\n        /* \"#utility.yul\":5139:5256   */\n      iszero\n      tag_153\n      jumpi\n        /* \"#utility.yul\":5175:5254   */\n      tag_154\n      tag_63\n      jump\t// in\n    tag_154:\n        /* \"#utility.yul\":5139:5256   */\n    tag_153:\n        /* \"#utility.yul\":5288:5353   */\n      tag_155\n        /* \"#utility.yul\":5345:5352   */\n      dup14\n        /* \"#utility.yul\":5336:5342   */\n      dup3\n        /* \"#utility.yul\":5325:5334   */\n      dup15\n        /* \"#utility.yul\":5321:5343   */\n      add\n        /* \"#utility.yul\":5288:5353   */\n      tag_70\n      jump\t// in\n    tag_155:\n        /* \"#utility.yul\":5270:5353   */\n      swap4\n      pop\n      swap4\n      pop\n        /* \"#utility.yul\":5064:5363   */\n      pop\n        /* \"#utility.yul\":5402:5405   */\n      0xa0\n        /* \"#utility.yul\":5429:5482   */\n      tag_156\n        /* \"#utility.yul\":5474:5481   */\n      dup14\n        /* \"#utility.yul\":5465:5471   */\n      dup3\n        /* \"#utility.yul\":5454:5463   */\n      dup15\n        /* \"#utility.yul\":5450:5472   */\n      add\n        /* \"#utility.yul\":5429:5482   */\n      tag_74\n      jump\t// in\n    tag_156:\n        /* \"#utility.yul\":5419:5482   */\n      swap2\n      pop\n        /* \"#utility.yul\":5373:5492   */\n      pop\n        /* \"#utility.yul\":3644:5499   */\n      swap3\n      swap6\n      swap9\n      swap12\n      swap2\n      swap5\n      swap8\n      swap11\n      pop\n      swap3\n      swap6\n      swap9\n      pop\n      jump\t// out\n        /* \"#utility.yul\":5505:6868   */\n    tag_16:\n        /* \"#utility.yul\":5626:5632   */\n      0x00\n        /* \"#utility.yul\":5634:5640   */\n      dup1\n        /* \"#utility.yul\":5642:5648   */\n      0x00\n        /* \"#utility.yul\":5650:5656   */\n      dup1\n        /* \"#utility.yul\":5658:5664   */\n      0x00\n        /* \"#utility.yul\":5666:5672   */\n      dup1\n        /* \"#utility.yul\":5674:5680   */\n      0x00\n        /* \"#utility.yul\":5723:5726   */\n      0x80\n        /* \"#utility.yul\":5711:5720   */\n      dup9\n        /* \"#utility.yul\":5702:5709   */\n      dup11\n        /* \"#utility.yul\":5698:5721   */\n      sub\n        /* \"#utility.yul\":5694:5727   */\n      slt\n        /* \"#utility.yul\":5691:5811   */\n      iszero\n      tag_158\n      jumpi\n        /* \"#utility.yul\":5730:5809   */\n      tag_159\n      tag_62\n      jump\t// in\n    tag_159:\n        /* \"#utility.yul\":5691:5811   */\n    tag_158:\n        /* \"#utility.yul\":5850:5851   */\n      0x00\n        /* \"#utility.yul\":5875:5928   */\n      tag_160\n        /* \"#utility.yul\":5920:5927   */\n      dup11\n        /* \"#utility.yul\":5911:5917   */\n      dup3\n        /* \"#utility.yul\":5900:5909   */\n      dup12\n        /* \"#utility.yul\":5896:5918   */\n      add\n        /* \"#utility.yul\":5875:5928   */\n      tag_66\n      jump\t// in\n    tag_160:\n        /* \"#utility.yul\":5865:5928   */\n      swap8\n      pop\n        /* \"#utility.yul\":5821:5938   */\n      pop\n        /* \"#utility.yul\":6005:6007   */\n      0x20\n        /* \"#utility.yul\":5994:6003   */\n      dup9\n        /* \"#utility.yul\":5990:6008   */\n      add\n        /* \"#utility.yul\":5977:6009   */\n      calldataload\n        /* \"#utility.yul\":6036:6054   */\n      0xffffffffffffffff\n        /* \"#utility.yul\":6028:6034   */\n      dup2\n        /* \"#utility.yul\":6025:6055   */\n      gt\n        /* \"#utility.yul\":6022:6139   */\n      iszero\n      tag_161\n      jumpi\n        /* \"#utility.yul\":6058:6137   */\n      tag_162\n      tag_63\n      jump\t// in\n    tag_162:\n        /* \"#utility.yul\":6022:6139   */\n    tag_161:\n        /* \"#utility.yul\":6171:6236   */\n      tag_163\n        /* \"#utility.yul\":6228:6235   */\n      dup11\n        /* \"#utility.yul\":6219:6225   */\n      dup3\n        /* \"#utility.yul\":6208:6217   */\n      dup12\n        /* \"#utility.yul\":6204:6226   */\n      add\n        /* \"#utility.yul\":6171:6236   */\n      tag_70\n      jump\t// in\n    tag_163:\n        /* \"#utility.yul\":6153:6236   */\n      swap7\n      pop\n      swap7\n      pop\n        /* \"#utility.yul\":5948:6246   */\n      pop\n        /* \"#utility.yul\":6313:6315   */\n      0x40\n        /* \"#utility.yul\":6302:6311   */\n      dup9\n        /* \"#utility.yul\":6298:6316   */\n      add\n        /* \"#utility.yul\":6285:6317   */\n      calldataload\n        /* \"#utility.yul\":6344:6362   */\n      0xffffffffffffffff\n        /* \"#utility.yul\":6336:6342   */\n      dup2\n        /* \"#utility.yul\":6333:6363   */\n      gt\n        /* \"#utility.yul\":6330:6447   */\n      iszero\n      tag_164\n      jumpi\n        /* \"#utility.yul\":6366:6445   */\n      tag_165\n      tag_63\n      jump\t// in\n    tag_165:\n        /* \"#utility.yul\":6330:6447   */\n    tag_164:\n        /* \"#utility.yul\":6479:6544   */\n      tag_166\n        /* \"#utility.yul\":6536:6543   */\n      dup11\n        /* \"#utility.yul\":6527:6533   */\n      dup3\n        /* \"#utility.yul\":6516:6525   */\n      dup12\n        /* \"#utility.yul\":6512:6534   */\n      add\n        /* \"#utility.yul\":6479:6544   */\n      tag_70\n      jump\t// in\n    tag_166:\n        /* \"#utility.yul\":6461:6544   */\n      swap5\n      pop\n      swap5\n      pop\n        /* \"#utility.yul\":6256:6554   */\n      pop\n        /* \"#utility.yul\":6621:6623   */\n      0x60\n        /* \"#utility.yul\":6610:6619   */\n      dup9\n        /* \"#utility.yul\":6606:6624   */\n      add\n        /* \"#utility.yul\":6593:6625   */\n      calldataload\n        /* \"#utility.yul\":6652:6670   */\n      0xffffffffffffffff\n        /* \"#utility.yul\":6644:6650   */\n      dup2\n        /* \"#utility.yul\":6641:6671   */\n      gt\n        /* \"#utility.yul\":6638:6755   */\n      iszero\n      tag_167\n      jumpi\n        /* \"#utility.yul\":6674:6753   */\n      tag_168\n      tag_63\n      jump\t// in\n    tag_168:\n        /* \"#utility.yul\":6638:6755   */\n    tag_167:\n        /* \"#utility.yul\":6787:6851   */\n      tag_169\n        /* \"#utility.yul\":6843:6850   */\n      dup11\n        /* \"#utility.yul\":6834:6840   */\n      dup3\n        /* \"#utility.yul\":6823:6832   */\n      dup12\n        /* \"#utility.yul\":6819:6841   */\n      add\n        /* \"#utility.yul\":6787:6851   */\n      tag_71\n      jump\t// in\n    tag_169:\n        /* \"#utility.yul\":6769:6851   */\n      swap3\n      pop\n      swap3\n      pop\n        /* \"#utility.yul\":6564:6861   */\n      pop\n        /* \"#utility.yul\":5505:6868   */\n      swap3\n      swap6\n      swap9\n      swap2\n      swap5\n      swap8\n      pop\n      swap3\n      swap6\n      pop\n      jump\t// out\n        /* \"#utility.yul\":6874:7021   */\n    tag_75:\n        /* \"#utility.yul\":6975:6986   */\n      0x00\n        /* \"#utility.yul\":7012:7015   */\n      dup2\n        /* \"#utility.yul\":6997:7015   */\n      swap1\n      pop\n        /* \"#utility.yul\":6874:7021   */\n      swap3\n      swap2\n      pop\n      pop\n      jump\t// out\n        /* \"#utility.yul\":7027:7173   */\n    tag_76:\n        /* \"#utility.yul\":7124:7130   */\n      dup3\n        /* \"#utility.yul\":7119:7122   */\n      dup2\n        /* \"#utility.yul\":7114:7117   */\n      dup4\n        /* \"#utility.yul\":7101:7131   */\n      calldatacopy\n        /* \"#utility.yul\":7165:7166   */\n      0x00\n        /* \"#utility.yul\":7156:7162   */\n      dup4\n        /* \"#utility.yul\":7151:7154   */\n      dup4\n        /* \"#utility.yul\":7147:7163   */\n      add\n        /* \"#utility.yul\":7140:7167   */\n      mstore\n        /* \"#utility.yul\":7027:7173   */\n      pop\n      pop\n      pop\n      jump\t// out\n        /* \"#utility.yul\":7201:7528   */\n    tag_77:\n        /* \"#utility.yul\":7315:7318   */\n      0x00\n        /* \"#utility.yul\":7336:7424   */\n      tag_173\n        /* \"#utility.yul\":7417:7423   */\n      dup4\n        /* \"#utility.yul\":7412:7415   */\n      dup6\n        /* \"#utility.yul\":7336:7424   */\n      tag_75\n      jump\t// in\n    tag_173:\n        /* \"#utility.yul\":7329:7424   */\n      swap4\n      pop\n        /* \"#utility.yul\":7434:7490   */\n      tag_174\n        /* \"#utility.yul\":7483:7489   */\n      dup4\n        /* \"#utility.yul\":7478:7481   */\n      dup6\n        /* \"#utility.yul\":7471:7476   */\n      dup5\n        /* \"#utility.yul\":7434:7490   */\n      tag_76\n      jump\t// in\n    tag_174:\n        /* \"#utility.yul\":7515:7521   */\n      dup3\n        /* \"#utility.yul\":7510:7513   */\n      dup5\n        /* \"#utility.yul\":7506:7522   */\n      add\n        /* \"#utility.yul\":7499:7522   */\n      swap1\n      pop\n        /* \"#utility.yul\":7201:7528   */\n      swap4\n      swap3\n      pop\n      pop\n      pop\n      jump\t// out\n        /* \"#utility.yul\":7534:7825   */\n    tag_20:\n        /* \"#utility.yul\":7674:7677   */\n      0x00\n        /* \"#utility.yul\":7696:7799   */\n      tag_176\n        /* \"#utility.yul\":7795:7798   */\n      dup3\n        /* \"#utility.yul\":7786:7792   */\n      dup5\n        /* \"#utility.yul\":7778:7784   */\n      dup7\n        /* \"#utility.yul\":7696:7799   */\n      tag_77\n      jump\t// in\n    tag_176:\n        /* \"#utility.yul\":7689:7799   */\n      swap2\n      pop\n        /* \"#utility.yul\":7816:7819   */\n      dup2\n        /* \"#utility.yul\":7809:7819   */\n      swap1\n      pop\n        /* \"#utility.yul\":7534:7825   */\n      swap4\n      swap3\n      pop\n      pop\n      pop\n      jump\t// out\n        /* \"#utility.yul\":7831:7949   */\n    tag_78:\n        /* \"#utility.yul\":7918:7942   */\n      tag_178\n        /* \"#utility.yul\":7936:7941   */\n      dup2\n        /* \"#utility.yul\":7918:7942   */\n      tag_64\n      jump\t// in\n    tag_178:\n        /* \"#utility.yul\":7913:7916   */\n      dup3\n        /* \"#utility.yul\":7906:7943   */\n      mstore\n        /* \"#utility.yul\":7831:7949   */\n      pop\n      pop\n      jump\t// out\n        /* \"#utility.yul\":7955:8124   */\n    tag_79:\n        /* \"#utility.yul\":8039:8050   */\n      0x00\n        /* \"#utility.yul\":8073:8079   */\n      dup3\n        /* \"#utility.yul\":8068:8071   */\n      dup3\n        /* \"#utility.yul\":8061:8080   */\n      mstore\n        /* \"#utility.yul\":8113:8117   */\n      0x20\n        /* \"#utility.yul\":8108:8111   */\n      dup3\n        /* \"#utility.yul\":8104:8118   */\n      add\n        /* \"#utility.yul\":8089:8118   */\n      swap1\n      pop\n        /* \"#utility.yul\":7955:8124   */\n      swap3\n      swap2\n      pop\n      pop\n      jump\t// out\n        /* \"#utility.yul\":8130:8232   */\n    tag_80:\n        /* \"#utility.yul\":8171:8177   */\n      0x00\n        /* \"#utility.yul\":8222:8224   */\n      0x1f\n        /* \"#utility.yul\":8218:8225   */\n      not\n        /* \"#utility.yul\":8213:8215   */\n      0x1f\n        /* \"#utility.yul\":8206:8211   */\n      dup4\n        /* \"#utility.yul\":8202:8216   */\n      add\n        /* \"#utility.yul\":8198:8226   */\n      and\n        /* \"#utility.yul\":8188:8226   */\n      swap1\n      pop\n        /* \"#utility.yul\":8130:8232   */\n      swap2\n      swap1\n      pop\n      jump\t// out\n        /* \"#utility.yul\":8262:8579   */\n    tag_81:\n        /* \"#utility.yul\":8360:8363   */\n      0x00\n        /* \"#utility.yul\":8381:8452   */\n      tag_182\n        /* \"#utility.yul\":8445:8451   */\n      dup4\n        /* \"#utility.yul\":8440:8443   */\n      dup6\n        /* \"#utility.yul\":8381:8452   */\n      tag_79\n      jump\t// in\n    tag_182:\n        /* \"#utility.yul\":8374:8452   */\n      swap4\n      pop\n        /* \"#utility.yul\":8462:8518   */\n      tag_183\n        /* \"#utility.yul\":8511:8517   */\n      dup4\n        /* \"#utility.yul\":8506:8509   */\n      dup6\n        /* \"#utility.yul\":8499:8504   */\n      dup5\n        /* \"#utility.yul\":8462:8518   */\n      tag_76\n      jump\t// in\n    tag_183:\n        /* \"#utility.yul\":8543:8572   */\n      tag_184\n        /* \"#utility.yul\":8565:8571   */\n      dup4\n        /* \"#utility.yul\":8543:8572   */\n      tag_80\n      jump\t// in\n    tag_184:\n        /* \"#utility.yul\":8538:8541   */\n      dup5\n        /* \"#utility.yul\":8534:8573   */\n      add\n        /* \"#utility.yul\":8527:8573   */\n      swap1\n      pop\n        /* \"#utility.yul\":8262:8579   */\n      swap4\n      swap3\n      pop\n      pop\n      pop\n      jump\t// out\n        /* \"#utility.yul\":8585:8703   */\n    tag_82:\n        /* \"#utility.yul\":8672:8696   */\n      tag_186\n        /* \"#utility.yul\":8690:8695   */\n      dup2\n        /* \"#utility.yul\":8672:8696   */\n      tag_72\n      jump\t// in\n    tag_186:\n        /* \"#utility.yul\":8667:8670   */\n      dup3\n        /* \"#utility.yul\":8660:8697   */\n      mstore\n        /* \"#utility.yul\":8585:8703   */\n      pop\n      pop\n      jump\t// out\n        /* \"#utility.yul\":8709:9817   */\n    tag_22:\n        /* \"#utility.yul\":9032:9036   */\n      0x00\n        /* \"#utility.yul\":9070:9073   */\n      0xc0\n        /* \"#utility.yul\":9059:9068   */\n      dup3\n        /* \"#utility.yul\":9055:9074   */\n      add\n        /* \"#utility.yul\":9047:9074   */\n      swap1\n      pop\n        /* \"#utility.yul\":9084:9155   */\n      tag_188\n        /* \"#utility.yul\":9152:9153   */\n      0x00\n        /* \"#utility.yul\":9141:9150   */\n      dup4\n        /* \"#utility.yul\":9137:9154   */\n      add\n        /* \"#utility.yul\":9128:9134   */\n      dup13\n        /* \"#utility.yul\":9084:9155   */\n      tag_78\n      jump\t// in\n    tag_188:\n        /* \"#utility.yul\":9202:9211   */\n      dup2\n        /* \"#utility.yul\":9196:9200   */\n      dup2\n        /* \"#utility.yul\":9192:9212   */\n      sub\n        /* \"#utility.yul\":9187:9189   */\n      0x20\n        /* \"#utility.yul\":9176:9185   */\n      dup4\n        /* \"#utility.yul\":9172:9190   */\n      add\n        /* \"#utility.yul\":9165:9213   */\n      mstore\n        /* \"#utility.yul\":9230:9318   */\n      tag_189\n        /* \"#utility.yul\":9313:9317   */\n      dup2\n        /* \"#utility.yul\":9304:9310   */\n      dup11\n        /* \"#utility.yul\":9296:9302   */\n      dup13\n        /* \"#utility.yul\":9230:9318   */\n      tag_81\n      jump\t// in\n    tag_189:\n        /* \"#utility.yul\":9222:9318   */\n      swap1\n      pop\n        /* \"#utility.yul\":9365:9374   */\n      dup2\n        /* \"#utility.yul\":9359:9363   */\n      dup2\n        /* \"#utility.yul\":9355:9375   */\n      sub\n        /* \"#utility.yul\":9350:9352   */\n      0x40\n        /* \"#utility.yul\":9339:9348   */\n      dup4\n        /* \"#utility.yul\":9335:9353   */\n      add\n        /* \"#utility.yul\":9328:9376   */\n      mstore\n        /* \"#utility.yul\":9393:9481   */\n      tag_190\n        /* \"#utility.yul\":9476:9480   */\n      dup2\n        /* \"#utility.yul\":9467:9473   */\n      dup9\n        /* \"#utility.yul\":9459:9465   */\n      dup11\n        /* \"#utility.yul\":9393:9481   */\n      tag_81\n      jump\t// in\n    tag_190:\n        /* \"#utility.yul\":9385:9481   */\n      swap1\n      pop\n        /* \"#utility.yul\":9491:9563   */\n      tag_191\n        /* \"#utility.yul\":9559:9561   */\n      0x60\n        /* \"#utility.yul\":9548:9557   */\n      dup4\n        /* \"#utility.yul\":9544:9562   */\n      add\n        /* \"#utility.yul\":9535:9541   */\n      dup8\n        /* \"#utility.yul\":9491:9563   */\n      tag_78\n      jump\t// in\n    tag_191:\n        /* \"#utility.yul\":9611:9620   */\n      dup2\n        /* \"#utility.yul\":9605:9609   */\n      dup2\n        /* \"#utility.yul\":9601:9621   */\n      sub\n        /* \"#utility.yul\":9595:9598   */\n      0x80\n        /* \"#utility.yul\":9584:9593   */\n      dup4\n        /* \"#utility.yul\":9580:9599   */\n      add\n        /* \"#utility.yul\":9573:9622   */\n      mstore\n        /* \"#utility.yul\":9639:9727   */\n      tag_192\n        /* \"#utility.yul\":9722:9726   */\n      dup2\n        /* \"#utility.yul\":9713:9719   */\n      dup6\n        /* \"#utility.yul\":9705:9711   */\n      dup8\n        /* \"#utility.yul\":9639:9727   */\n      tag_81\n      jump\t// in\n    tag_192:\n        /* \"#utility.yul\":9631:9727   */\n      swap1\n      pop\n        /* \"#utility.yul\":9737:9810   */\n      tag_193\n        /* \"#utility.yul\":9805:9808   */\n      0xa0\n        /* \"#utility.yul\":9794:9803   */\n      dup4\n        /* \"#utility.yul\":9790:9809   */\n      add\n        /* \"#utility.yul\":9781:9787   */\n      dup5\n        /* \"#utility.yul\":9737:9810   */\n      tag_82\n      jump\t// in\n    tag_193:\n        /* \"#utility.yul\":8709:9817   */\n      swap11\n      swap10\n      pop\n      pop\n      pop\n      pop\n      pop\n      pop\n      pop\n      pop\n      pop\n      pop\n      jump\t// out\n        /* \"#utility.yul\":9823:9913   */\n    tag_83:\n        /* \"#utility.yul\":9857:9864   */\n      0x00\n        /* \"#utility.yul\":9900:9905   */\n      dup2\n        /* \"#utility.yul\":9893:9906   */\n      iszero\n        /* \"#utility.yul\":9886:9907   */\n      iszero\n        /* \"#utility.yul\":9875:9907   */\n      swap1\n      pop\n        /* \"#utility.yul\":9823:9913   */\n      swap2\n      swap1\n      pop\n      jump\t// out\n        /* \"#utility.yul\":9919:10035   */\n    tag_84:\n        /* \"#utility.yul\":9989:10010   */\n      tag_196\n        /* \"#utility.yul\":10004:10009   */\n      dup2\n        /* \"#utility.yul\":9989:10010   */\n      tag_83\n      jump\t// in\n    tag_196:\n        /* \"#utility.yul\":9982:9987   */\n      dup2\n        /* \"#utility.yul\":9979:10011   */\n      eq\n        /* \"#utility.yul\":9969:10029   */\n      tag_197\n      jumpi\n        /* \"#utility.yul\":10025:10026   */\n      0x00\n        /* \"#utility.yul\":10022:10023   */\n      dup1\n        /* \"#utility.yul\":10015:10027   */\n      revert\n        /* \"#utility.yul\":9969:10029   */\n    tag_197:\n        /* \"#utility.yul\":9919:10035   */\n      pop\n      jump\t// out\n        /* \"#utility.yul\":10041:10178   */\n    tag_85:\n        /* \"#utility.yul\":10095:10100   */\n      0x00\n        /* \"#utility.yul\":10126:10132   */\n      dup2\n        /* \"#utility.yul\":10120:10133   */\n      mload\n        /* \"#utility.yul\":10111:10133   */\n      swap1\n      pop\n        /* \"#utility.yul\":10142:10172   */\n      tag_199\n        /* \"#utility.yul\":10166:10171   */\n      dup2\n        /* \"#utility.yul\":10142:10172   */\n      tag_84\n      jump\t// in\n    tag_199:\n        /* \"#utility.yul\":10041:10178   */\n      swap3\n      swap2\n      pop\n      pop\n      jump\t// out\n        /* \"#utility.yul\":10184:10529   */\n    tag_26:\n        /* \"#utility.yul\":10251:10257   */\n      0x00\n        /* \"#utility.yul\":10300:10302   */\n      0x20\n        /* \"#utility.yul\":10288:10297   */\n      dup3\n        /* \"#utility.yul\":10279:10286   */\n      dup5\n        /* \"#utility.yul\":10275:10298   */\n      sub\n        /* \"#utility.yul\":10271:10303   */\n      slt\n        /* \"#utility.yul\":10268:10387   */\n      iszero\n      tag_201\n      jumpi\n        /* \"#utility.yul\":10306:10385   */\n      tag_202\n      tag_62\n      jump\t// in\n    tag_202:\n        /* \"#utility.yul\":10268:10387   */\n    tag_201:\n        /* \"#utility.yul\":10426:10427   */\n      0x00\n        /* \"#utility.yul\":10451:10512   */\n      tag_203\n        /* \"#utility.yul\":10504:10511   */\n      dup5\n        /* \"#utility.yul\":10495:10501   */\n      dup3\n        /* \"#utility.yul\":10484:10493   */\n      dup6\n        /* \"#utility.yul\":10480:10502   */\n      add\n        /* \"#utility.yul\":10451:10512   */\n      tag_85\n      jump\t// in\n    tag_203:\n        /* \"#utility.yul\":10441:10512   */\n      swap2\n      pop\n        /* \"#utility.yul\":10397:10522   */\n      pop\n        /* \"#utility.yul\":10184:10529   */\n      swap3\n      swap2\n      pop\n      pop\n      jump\t// out\n        /* \"#utility.yul\":10535:11310   */\n    tag_33:\n        /* \"#utility.yul\":10772:10776   */\n      0x00\n        /* \"#utility.yul\":10810:10813   */\n      0x80\n        /* \"#utility.yul\":10799:10808   */\n      dup3\n        /* \"#utility.yul\":10795:10814   */\n      add\n        /* \"#utility.yul\":10787:10814   */\n      swap1\n      pop\n        /* \"#utility.yul\":10824:10895   */\n      tag_205\n        /* \"#utility.yul\":10892:10893   */\n      0x00\n        /* \"#utility.yul\":10881:10890   */\n      dup4\n        /* \"#utility.yul\":10877:10894   */\n      add\n        /* \"#utility.yul\":10868:10874   */\n      dup10\n        /* \"#utility.yul\":10824:10895   */\n      tag_78\n      jump\t// in\n    tag_205:\n        /* \"#utility.yul\":10942:10951   */\n      dup2\n        /* \"#utility.yul\":10936:10940   */\n      dup2\n        /* \"#utility.yul\":10932:10952   */\n      sub\n        /* \"#utility.yul\":10927:10929   */\n      0x20\n        /* \"#utility.yul\":10916:10925   */\n      dup4\n        /* \"#utility.yul\":10912:10930   */\n      add\n        /* \"#utility.yul\":10905:10953   */\n      mstore\n        /* \"#utility.yul\":10970:11058   */\n      tag_206\n        /* \"#utility.yul\":11053:11057   */\n      dup2\n        /* \"#utility.yul\":11044:11050   */\n      dup8\n        /* \"#utility.yul\":11036:11042   */\n      dup10\n        /* \"#utility.yul\":10970:11058   */\n      tag_81\n      jump\t// in\n    tag_206:\n        /* \"#utility.yul\":10962:11058   */\n      swap1\n      pop\n        /* \"#utility.yul\":11105:11114   */\n      dup2\n        /* \"#utility.yul\":11099:11103   */\n      dup2\n        /* \"#utility.yul\":11095:11115   */\n      sub\n        /* \"#utility.yul\":11090:11092   */\n      0x40\n        /* \"#utility.yul\":11079:11088   */\n      dup4\n        /* \"#utility.yul\":11075:11093   */\n      add\n        /* \"#utility.yul\":11068:11116   */\n      mstore\n        /* \"#utility.yul\":11133:11221   */\n      tag_207\n        /* \"#utility.yul\":11216:11220   */\n      dup2\n        /* \"#utility.yul\":11207:11213   */\n      dup6\n        /* \"#utility.yul\":11199:11205   */\n      dup8\n        /* \"#utility.yul\":11133:11221   */\n      tag_81\n      jump\t// in\n    tag_207:\n        /* \"#utility.yul\":11125:11221   */\n      swap1\n      pop\n        /* \"#utility.yul\":11231:11303   */\n      tag_208\n        /* \"#utility.yul\":11299:11301   */\n      0x60\n        /* \"#utility.yul\":11288:11297   */\n      dup4\n        /* \"#utility.yul\":11284:11302   */\n      add\n        /* \"#utility.yul\":11275:11281   */\n      dup5\n        /* \"#utility.yul\":11231:11303   */\n      tag_78\n      jump\t// in\n    tag_208:\n        /* \"#utility.yul\":10535:11310   */\n      swap8\n      swap7\n      pop\n      pop\n      pop\n      pop\n      pop\n      pop\n      pop\n      jump\t// out\n        /* \"#utility.yul\":11316:11420   */\n    tag_86:\n        /* \"#utility.yul\":11361:11368   */\n      0x00\n        /* \"#utility.yul\":11390:11414   */\n      tag_210\n        /* \"#utility.yul\":11408:11413   */\n      dup3\n        /* \"#utility.yul\":11390:11414   */\n      tag_55\n      jump\t// in\n    tag_210:\n        /* \"#utility.yul\":11379:11414   */\n      swap1\n      pop\n        /* \"#utility.yul\":11316:11420   */\n      swap2\n      swap1\n      pop\n      jump\t// out\n        /* \"#utility.yul\":11426:11564   */\n    tag_87:\n        /* \"#utility.yul\":11507:11539   */\n      tag_212\n        /* \"#utility.yul\":11533:11538   */\n      dup2\n        /* \"#utility.yul\":11507:11539   */\n      tag_86\n      jump\t// in\n    tag_212:\n        /* \"#utility.yul\":11500:11505   */\n      dup2\n        /* \"#utility.yul\":11497:11540   */\n      eq\n        /* \"#utility.yul\":11487:11558   */\n      tag_213\n      jumpi\n        /* \"#utility.yul\":11554:11555   */\n      0x00\n        /* \"#utility.yul\":11551:11552   */\n      dup1\n        /* \"#utility.yul\":11544:11556   */\n      revert\n        /* \"#utility.yul\":11487:11558   */\n    tag_213:\n        /* \"#utility.yul\":11426:11564   */\n      pop\n      jump\t// out\n        /* \"#utility.yul\":11570:11725   */\n    tag_88:\n        /* \"#utility.yul\":11624:11629   */\n      0x00\n        /* \"#utility.yul\":11662:11668   */\n      dup2\n        /* \"#utility.yul\":11649:11669   */\n      calldataload\n        /* \"#utility.yul\":11640:11669   */\n      swap1\n      pop\n        /* \"#utility.yul\":11678:11719   */\n      tag_215\n        /* \"#utility.yul\":11713:11718   */\n      dup2\n        /* \"#utility.yul\":11678:11719   */\n      tag_87\n      jump\t// in\n    tag_215:\n        /* \"#utility.yul\":11570:11725   */\n      swap3\n      swap2\n      pop\n      pop\n      jump\t// out\n        /* \"#utility.yul\":11731:12076   */\n    tag_42:\n        /* \"#utility.yul\":11798:11804   */\n      0x00\n        /* \"#utility.yul\":11847:11849   */\n      0x20\n        /* \"#utility.yul\":11835:11844   */\n      dup3\n        /* \"#utility.yul\":11826:11833   */\n      dup5\n        /* \"#utility.yul\":11822:11845   */\n      sub\n        /* \"#utility.yul\":11818:11850   */\n      slt\n        /* \"#utility.yul\":11815:11934   */\n      iszero\n      tag_217\n      jumpi\n        /* \"#utility.yul\":11853:11932   */\n      tag_218\n      tag_62\n      jump\t// in\n    tag_218:\n        /* \"#utility.yul\":11815:11934   */\n    tag_217:\n        /* \"#utility.yul\":11973:11974   */\n      0x00\n        /* \"#utility.yul\":11998:12059   */\n      tag_219\n        /* \"#utility.yul\":12051:12058   */\n      dup5\n        /* \"#utility.yul\":12042:12048   */\n      dup3\n        /* \"#utility.yul\":12031:12040   */\n      dup6\n        /* \"#utility.yul\":12027:12049   */\n      add\n        /* \"#utility.yul\":11998:12059   */\n      tag_88\n      jump\t// in\n    tag_219:\n        /* \"#utility.yul\":11988:12059   */\n      swap2\n      pop\n        /* \"#utility.yul\":11944:12069   */\n      pop\n        /* \"#utility.yul\":11731:12076   */\n      swap3\n      swap2\n      pop\n      pop\n      jump\t// out\n        /* \"#utility.yul\":12082:12415   */\n    tag_44:\n        /* \"#utility.yul\":12205:12209   */\n      0x00\n        /* \"#utility.yul\":12243:12245   */\n      0x20\n        /* \"#utility.yul\":12232:12241   */\n      dup3\n        /* \"#utility.yul\":12228:12246   */\n      add\n        /* \"#utility.yul\":12220:12246   */\n      swap1\n      pop\n        /* \"#utility.yul\":12292:12301   */\n      dup2\n        /* \"#utility.yul\":12286:12290   */\n      dup2\n        /* \"#utility.yul\":12282:12302   */\n      sub\n        /* \"#utility.yul\":12278:12279   */\n      0x00\n        /* \"#utility.yul\":12267:12276   */\n      dup4\n        /* \"#utility.yul\":12263:12280   */\n      add\n        /* \"#utility.yul\":12256:12303   */\n      mstore\n        /* \"#utility.yul\":12320:12408   */\n      tag_221\n        /* \"#utility.yul\":12403:12407   */\n      dup2\n        /* \"#utility.yul\":12394:12400   */\n      dup5\n        /* \"#utility.yul\":12386:12392   */\n      dup7\n        /* \"#utility.yul\":12320:12408   */\n      tag_81\n      jump\t// in\n    tag_221:\n        /* \"#utility.yul\":12312:12408   */\n      swap1\n      pop\n        /* \"#utility.yul\":12082:12415   */\n      swap4\n      swap3\n      pop\n      pop\n      pop\n      jump\t// out\n        /* \"#utility.yul\":12421:12517   */\n    tag_89:\n        /* \"#utility.yul\":12458:12465   */\n      0x00\n        /* \"#utility.yul\":12487:12511   */\n      tag_223\n        /* \"#utility.yul\":12505:12510   */\n      dup3\n        /* \"#utility.yul\":12487:12511   */\n      tag_55\n      jump\t// in\n    tag_223:\n        /* \"#utility.yul\":12476:12511   */\n      swap1\n      pop\n        /* \"#utility.yul\":12421:12517   */\n      swap2\n      swap1\n      pop\n      jump\t// out\n        /* \"#utility.yul\":12523:12645   */\n    tag_90:\n        /* \"#utility.yul\":12596:12620   */\n      tag_225\n        /* \"#utility.yul\":12614:12619   */\n      dup2\n        /* \"#utility.yul\":12596:12620   */\n      tag_89\n      jump\t// in\n    tag_225:\n        /* \"#utility.yul\":12589:12594   */\n      dup2\n        /* \"#utility.yul\":12586:12621   */\n      eq\n        /* \"#utility.yul\":12576:12639   */\n      tag_226\n      jumpi\n        /* \"#utility.yul\":12635:12636   */\n      0x00\n        /* \"#utility.yul\":12632:12633   */\n      dup1\n        /* \"#utility.yul\":12625:12637   */\n      revert\n        /* \"#utility.yul\":12576:12639   */\n    tag_226:\n        /* \"#utility.yul\":12523:12645   */\n      pop\n      jump\t// out\n        /* \"#utility.yul\":12651:12794   */\n    tag_91:\n        /* \"#utility.yul\":12708:12713   */\n      0x00\n        /* \"#utility.yul\":12739:12745   */\n      dup2\n        /* \"#utility.yul\":12733:12746   */\n      mload\n        /* \"#utility.yul\":12724:12746   */\n      swap1\n      pop\n        /* \"#utility.yul\":12755:12788   */\n      tag_228\n        /* \"#utility.yul\":12782:12787   */\n      dup2\n        /* \"#utility.yul\":12755:12788   */\n      tag_90\n      jump\t// in\n    tag_228:\n        /* \"#utility.yul\":12651:12794   */\n      swap3\n      swap2\n      pop\n      pop\n      jump\t// out\n        /* \"#utility.yul\":12800:13151   */\n    tag_48:\n        /* \"#utility.yul\":12870:12876   */\n      0x00\n        /* \"#utility.yul\":12919:12921   */\n      0x20\n        /* \"#utility.yul\":12907:12916   */\n      dup3\n        /* \"#utility.yul\":12898:12905   */\n      dup5\n        /* \"#utility.yul\":12894:12917   */\n      sub\n        /* \"#utility.yul\":12890:12922   */\n      slt\n        /* \"#utility.yul\":12887:13006   */\n      iszero\n      tag_230\n      jumpi\n        /* \"#utility.yul\":12925:13004   */\n      tag_231\n      tag_62\n      jump\t// in\n    tag_231:\n        /* \"#utility.yul\":12887:13006   */\n    tag_230:\n        /* \"#utility.yul\":13045:13046   */\n      0x00\n        /* \"#utility.yul\":13070:13134   */\n      tag_232\n        /* \"#utility.yul\":13126:13133   */\n      dup5\n        /* \"#utility.yul\":13117:13123   */\n      dup3\n        /* \"#utility.yul\":13106:13115   */\n      dup6\n        /* \"#utility.yul\":13102:13124   */\n      add\n        /* \"#utility.yul\":13070:13134   */\n      tag_91\n      jump\t// in\n    tag_232:\n        /* \"#utility.yul\":13060:13134   */\n      swap2\n      pop\n        /* \"#utility.yul\":13016:13144   */\n      pop\n        /* \"#utility.yul\":12800:13151   */\n      swap3\n      swap2\n      pop\n      pop\n      jump\t// out\n        /* \"#utility.yul\":13157:13275   */\n    tag_92:\n        /* \"#utility.yul\":13244:13268   */\n      tag_234\n        /* \"#utility.yul\":13262:13267   */\n      dup2\n        /* \"#utility.yul\":13244:13268   */\n      tag_89\n      jump\t// in\n    tag_234:\n        /* \"#utility.yul\":13239:13242   */\n      dup3\n        /* \"#utility.yul\":13232:13269   */\n      mstore\n        /* \"#utility.yul\":13157:13275   */\n      pop\n      pop\n      jump\t// out\n        /* \"#utility.yul\":13281:13613   */\n    tag_50:\n        /* \"#utility.yul\":13402:13406   */\n      0x00\n        /* \"#utility.yul\":13440:13442   */\n      0x40\n        /* \"#utility.yul\":13429:13438   */\n      dup3\n        /* \"#utility.yul\":13425:13443   */\n      add\n        /* \"#utility.yul\":13417:13443   */\n      swap1\n      pop\n        /* \"#utility.yul\":13453:13524   */\n      tag_236\n        /* \"#utility.yul\":13521:13522   */\n      0x00\n        /* \"#utility.yul\":13510:13519   */\n      dup4\n        /* \"#utility.yul\":13506:13523   */\n      add\n        /* \"#utility.yul\":13497:13503   */\n      dup6\n        /* \"#utility.yul\":13453:13524   */\n      tag_92\n      jump\t// in\n    tag_236:\n        /* \"#utility.yul\":13534:13606   */\n      tag_237\n        /* \"#utility.yul\":13602:13604   */\n      0x20\n        /* \"#utility.yul\":13591:13600   */\n      dup4\n        /* \"#utility.yul\":13587:13605   */\n      add\n        /* \"#utility.yul\":13578:13584   */\n      dup5\n        /* \"#utility.yul\":13534:13606   */\n      tag_82\n      jump\t// in\n    tag_237:\n        /* \"#utility.yul\":13281:13613   */\n      swap4\n      swap3\n      pop\n      pop\n      pop\n      jump\t// out\n\n    auxdata: 0xa264697066735822122095131cd75299bf85924ab893fda9ecddba10a390df3fcf865c0ee4b61833ac4864736f6c63430008120033\n}\n",
				"bytecode": {
					"linkReferences": {},
					"object": "60c060405234801561001057600080fd5b50604051610d49380380610d498339818101604052810190610032919061016c565b81600073ffffffffffffffffffffffffffffffffffffffff168173ffffffffffffffffffffffffffffffffffffffff1603610099576040517fe6c4247b00000000000000000000000000000000000000000000000000000000815260040160405180910390fd5b8073ffffffffffffffffffffffffffffffffffffffff1660808173ffffffffffffffffffffffffffffffffffffffff1681525050508073ffffffffffffffffffffffffffffffffffffffff1660a08173ffffffffffffffffffffffffffffffffffffffff168152505050506101ac565b600080fd5b600073ffffffffffffffffffffffffffffffffffffffff82169050919050565b60006101398261010e565b9050919050565b6101498161012e565b811461015457600080fd5b50565b60008151905061016681610140565b92915050565b6000806040838503121561018357610182610109565b5b600061019185828601610157565b92505060206101a285828601610157565b9150509250929050565b60805160a051610b686101e16000396000505060008181609e0152818160de015281816101fa01526103030152610b686000f3fe608060405234801561001057600080fd5b50600436106100415760003560e01c8063116191b6146100465780631a98b2e0146100645780634916065814610080575b600080fd5b61004e61009c565b60405161005b91906104de565b60405180910390f35b61007e6004803603810190610079919061062a565b6100c0565b005b61009a6004803603810190610095919061073a565b6101dc565b005b7f000000000000000000000000000000000000000000000000000000000000000081565b600085856040516100d2929190610842565b604051809103902090507f000000000000000000000000000000000000000000000000000000000000000073ffffffffffffffffffffffffffffffffffffffff16631876eed98c8c8c8c8c878b8b8b6040518a63ffffffff1660e01b8152600401610145999897969594939291906108c8565b6020604051808303816000875af1158015610164573d6000803e3d6000fd5b505050506040513d601f19601f82011682018060405250810190610188919061097c565b6101be576040517f500c44b400000000000000000000000000000000000000000000000000000000815260040160405180910390fd5b6101cf8a8a8a8a8a8a8a8a8a6102ec565b5050505050505050505050565b600082826040516101ee929190610842565b604051809103902090507f000000000000000000000000000000000000000000000000000000000000000073ffffffffffffffffffffffffffffffffffffffff16635f6970c38989898989876040518763ffffffff1660e01b815260040161025b969594939291906109a9565b6020604051808303816000875af115801561027a573d6000803e3d6000fd5b505050506040513d601f19601f8201168201806040525081019061029e919061097c565b6102d4576040517f500c44b400000000000000000000000000000000000000000000000000000000815260040160405180910390fd5b6102e2878787878787610457565b5050505050505050565b600085858101906102fd9190610a3e565b905060007f000000000000000000000000000000000000000000000000000000000000000073ffffffffffffffffffffffffffffffffffffffff1663935b13f686866040518363ffffffff1660e01b815260040161035c929190610a6b565b602060405180830381865afa158015610379573d6000803e3d6000fd5b505050506040513d601f19601f8201168201806040525081019061039d9190610acd565b90508073ffffffffffffffffffffffffffffffffffffffff1663a9059cbb83856040518363ffffffff1660e01b81526004016103da929190610b09565b6020604051808303816000875af11580156103f9573d6000803e3d6000fd5b505050506040513d601f19601f8201168201806040525081019061041d919061097c565b507f68f46c45a243a0e9065a97649faf9a5afe1692f2679e650c2f853b9cd734cc0e60405160405180910390a15050505050505050505050565b505050505050565b600073ffffffffffffffffffffffffffffffffffffffff82169050919050565b6000819050919050565b60006104a461049f61049a8461045f565b61047f565b61045f565b9050919050565b60006104b682610489565b9050919050565b60006104c8826104ab565b9050919050565b6104d8816104bd565b82525050565b60006020820190506104f360008301846104cf565b92915050565b600080fd5b600080fd5b6000819050919050565b61051681610503565b811461052157600080fd5b50565b6000813590506105338161050d565b92915050565b600080fd5b600080fd5b600080fd5b60008083601f84011261055e5761055d610539565b5b8235905067ffffffffffffffff81111561057b5761057a61053e565b5b60208301915083600182028301111561059757610596610543565b5b9250929050565b60008083601f8401126105b4576105b3610539565b5b8235905067ffffffffffffffff8111156105d1576105d061053e565b5b6020830191508360018202830111156105ed576105ec610543565b5b9250929050565b6000819050919050565b610607816105f4565b811461061257600080fd5b50565b600081359050610624816105fe565b92915050565b60008060008060008060008060008060c08b8d03121561064d5761064c6104f9565b5b600061065b8d828e01610524565b9a505060208b013567ffffffffffffffff81111561067c5761067b6104fe565b5b6106888d828e01610548565b995099505060408b013567ffffffffffffffff8111156106ab576106aa6104fe565b5b6106b78d828e01610548565b975097505060608b013567ffffffffffffffff8111156106da576106d96104fe565b5b6106e68d828e0161059e565b955095505060808b013567ffffffffffffffff811115610709576107086104fe565b5b6107158d828e01610548565b935093505060a06107288d828e01610615565b9150509295989b9194979a5092959850565b60008060008060008060006080888a031215610759576107586104f9565b5b60006107678a828b01610524565b975050602088013567ffffffffffffffff811115610788576107876104fe565b5b6107948a828b01610548565b9650965050604088013567ffffffffffffffff8111156107b7576107b66104fe565b5b6107c38a828b01610548565b9450945050606088013567ffffffffffffffff8111156107e6576107e56104fe565b5b6107f28a828b0161059e565b925092505092959891949750929550565b600081905092915050565b82818337600083830152505050565b60006108298385610803565b935061083683858461080e565b82840190509392505050565b600061084f82848661081d565b91508190509392505050565b61086481610503565b82525050565b600082825260208201905092915050565b6000601f19601f8301169050919050565b6000610898838561086a565b93506108a583858461080e565b6108ae8361087b565b840190509392505050565b6108c2816105f4565b82525050565b600060c0820190506108dd600083018c61085b565b81810360208301526108f0818a8c61088c565b9050818103604083015261090581888a61088c565b9050610914606083018761085b565b818103608083015261092781858761088c565b905061093660a08301846108b9565b9a9950505050505050505050565b60008115159050919050565b61095981610944565b811461096457600080fd5b50565b60008151905061097681610950565b92915050565b600060208284031215610992576109916104f9565b5b60006109a084828501610967565b91505092915050565b60006080820190506109be600083018961085b565b81810360208301526109d181878961088c565b905081810360408301526109e681858761088c565b90506109f5606083018461085b565b979650505050505050565b6000610a0b8261045f565b9050919050565b610a1b81610a00565b8114610a2657600080fd5b50565b600081359050610a3881610a12565b92915050565b600060208284031215610a5457610a536104f9565b5b6000610a6284828501610a29565b91505092915050565b60006020820190508181036000830152610a8681848661088c565b90509392505050565b6000610a9a8261045f565b9050919050565b610aaa81610a8f565b8114610ab557600080fd5b50565b600081519050610ac781610aa1565b92915050565b600060208284031215610ae357610ae26104f9565b5b6000610af184828501610ab8565b91505092915050565b610b0381610a8f565b82525050565b6000604082019050610b1e6000830185610afa565b610b2b60208301846108b9565b939250505056fea264697066735822122095131cd75299bf85924ab893fda9ecddba10a390df3fcf865c0ee4b61833ac4864736f6c63430008120033",
					"opcodes": "PUSH1 0xC0 PUSH1 0x40 MSTORE CALLVALUE DUP1 ISZERO PUSH2 0x10 JUMPI PUSH1 0x0 DUP1 REVERT JUMPDEST POP PUSH1 0x40 MLOAD PUSH2 0xD49 CODESIZE SUB DUP1 PUSH2 0xD49 DUP4 CODECOPY DUP2 DUP2 ADD PUSH1 0x40 MSTORE DUP2 ADD SWAP1 PUSH2 0x32 SWAP2 SWAP1 PUSH2 0x16C JUMP JUMPDEST DUP2 PUSH1 0x0 PUSH20 0xFFFFFFFFFFFFFFFFFFFFFFFFFFFFFFFFFFFFFFFF AND DUP2 PUSH20 0xFFFFFFFFFFFFFFFFFFFFFFFFFFFFFFFFFFFFFFFF AND SUB PUSH2 0x99 JUMPI PUSH1 0x40 MLOAD PUSH32 0xE6C4247B00000000000000000000000000000000000000000000000000000000 DUP2 MSTORE PUSH1 0x4 ADD PUSH1 0x40 MLOAD DUP1 SWAP2 SUB SWAP1 REVERT JUMPDEST DUP1 PUSH20 0xFFFFFFFFFFFFFFFFFFFFFFFFFFFFFFFFFFFFFFFF AND PUSH1 0x80 DUP2 PUSH20 0xFFFFFFFFFFFFFFFFFFFFFFFFFFFFFFFFFFFFFFFF AND DUP2 MSTORE POP POP POP DUP1 PUSH20 0xFFFFFFFFFFFFFFFFFFFFFFFFFFFFFFFFFFFFFFFF AND PUSH1 0xA0 DUP2 PUSH20 0xFFFFFFFFFFFFFFFFFFFFFFFFFFFFFFFFFFFFFFFF AND DUP2 MSTORE POP POP POP POP PUSH2 0x1AC JUMP JUMPDEST PUSH1 0x0 DUP1 REVERT JUMPDEST PUSH1 0x0 PUSH20 0xFFFFFFFFFFFFFFFFFFFFFFFFFFFFFFFFFFFFFFFF DUP3 AND SWAP1 POP SWAP2 SWAP1 POP JUMP JUMPDEST PUSH1 0x0 PUSH2 0x139 DUP3 PUSH2 0x10E JUMP JUMPDEST SWAP1 POP SWAP2 SWAP1 POP JUMP JUMPDEST PUSH2 0x149 DUP2 PUSH2 0x12E JUMP JUMPDEST DUP2 EQ PUSH2 0x154 JUMPI PUSH1 0x0 DUP1 REVERT JUMPDEST POP JUMP JUMPDEST PUSH1 0x0 DUP2 MLOAD SWAP1 POP PUSH2 0x166 DUP2 PUSH2 0x140 JUMP JUMPDEST SWAP3 SWAP2 POP POP JUMP JUMPDEST PUSH1 0x0 DUP1 PUSH1 0x40 DUP4 DUP6 SUB SLT ISZERO PUSH2 0x183 JUMPI PUSH2 0x182 PUSH2 0x109 JUMP JUMPDEST JUMPDEST PUSH1 0x0 PUSH2 0x191 DUP6 DUP3 DUP7 ADD PUSH2 0x157 JUMP JUMPDEST SWAP3 POP POP PUSH1 0x20 PUSH2 0x1A2 DUP6 DUP3 DUP7 ADD PUSH2 0x157 JUMP JUMPDEST SWAP2 POP POP SWAP3 POP SWAP3 SWAP1 POP JUMP JUMPDEST PUSH1 0x80 MLOAD PUSH1 0xA0 MLOAD PUSH2 0xB68 PUSH2 0x1E1 PUSH1 0x0 CODECOPY PUSH1 0x0 POP POP PUSH1 0x0 DUP2 DUP2 PUSH1 0x9E ADD MSTORE DUP2 DUP2 PUSH1 0xDE ADD MSTORE DUP2 DUP2 PUSH2 0x1FA ADD MSTORE PUSH2 0x303 ADD MSTORE PUSH2 0xB68 PUSH1 0x0 RETURN INVALID PUSH1 0x80 PUSH1 0x40 MSTORE CALLVALUE DUP1 ISZERO PUSH2 0x10 JUMPI PUSH1 0x0 DUP1 REVERT JUMPDEST POP PUSH1 0x4 CALLDATASIZE LT PUSH2 0x41 JUMPI PUSH1 0x0 CALLDATALOAD PUSH1 0xE0 SHR DUP1 PUSH4 0x116191B6 EQ PUSH2 0x46 JUMPI DUP1 PUSH4 0x1A98B2E0 EQ PUSH2 0x64 JUMPI DUP1 PUSH4 0x49160658 EQ PUSH2 0x80 JUMPI JUMPDEST PUSH1 0x0 DUP1 REVERT JUMPDEST PUSH2 0x4E PUSH2 0x9C JUMP JUMPDEST PUSH1 0x40 MLOAD PUSH2 0x5B SWAP2 SWAP1 PUSH2 0x4DE JUMP JUMPDEST PUSH1 0x40 MLOAD DUP1 SWAP2 SUB SWAP1 RETURN JUMPDEST PUSH2 0x7E PUSH1 0x4 DUP1 CALLDATASIZE SUB DUP2 ADD SWAP1 PUSH2 0x79 SWAP2 SWAP1 PUSH2 0x62A JUMP JUMPDEST PUSH2 0xC0 JUMP JUMPDEST STOP JUMPDEST PUSH2 0x9A PUSH1 0x4 DUP1 CALLDATASIZE SUB DUP2 ADD SWAP1 PUSH2 0x95 SWAP2 SWAP1 PUSH2 0x73A JUMP JUMPDEST PUSH2 0x1DC JUMP JUMPDEST STOP JUMPDEST PUSH32 0x0 DUP2 JUMP JUMPDEST PUSH1 0x0 DUP6 DUP6 PUSH1 0x40 MLOAD PUSH2 0xD2 SWAP3 SWAP2 SWAP1 PUSH2 0x842 JUMP JUMPDEST PUSH1 0x40 MLOAD DUP1 SWAP2 SUB SWAP1 KECCAK256 SWAP1 POP PUSH32 0x0 PUSH20 0xFFFFFFFFFFFFFFFFFFFFFFFFFFFFFFFFFFFFFFFF AND PUSH4 0x1876EED9 DUP13 DUP13 DUP13 DUP13 DUP13 DUP8 DUP12 DUP12 DUP12 PUSH1 0x40 MLOAD DUP11 PUSH4 0xFFFFFFFF AND PUSH1 0xE0 SHL DUP2 MSTORE PUSH1 0x4 ADD PUSH2 0x145 SWAP10 SWAP9 SWAP8 SWAP7 SWAP6 SWAP5 SWAP4 SWAP3 SWAP2 SWAP1 PUSH2 0x8C8 JUMP JUMPDEST PUSH1 0x20 PUSH1 0x40 MLOAD DUP1 DUP4 SUB DUP2 PUSH1 0x0 DUP8 GAS CALL ISZERO DUP1 ISZERO PUSH2 0x164 JUMPI RETURNDATASIZE PUSH1 0x0 DUP1 RETURNDATACOPY RETURNDATASIZE PUSH1 0x0 REVERT JUMPDEST POP POP POP POP PUSH1 0x40 MLOAD RETURNDATASIZE PUSH1 0x1F NOT PUSH1 0x1F DUP3 ADD AND DUP3 ADD DUP1 PUSH1 0x40 MSTORE POP DUP2 ADD SWAP1 PUSH2 0x188 SWAP2 SWAP1 PUSH2 0x97C JUMP JUMPDEST PUSH2 0x1BE JUMPI PUSH1 0x40 MLOAD PUSH32 0x500C44B400000000000000000000000000000000000000000000000000000000 DUP2 MSTORE PUSH1 0x4 ADD PUSH1 0x40 MLOAD DUP1 SWAP2 SUB SWAP1 REVERT JUMPDEST PUSH2 0x1CF DUP11 DUP11 DUP11 DUP11 DUP11 DUP11 DUP11 DUP11 DUP11 PUSH2 0x2EC JUMP JUMPDEST POP POP POP POP POP POP POP POP POP POP POP JUMP JUMPDEST PUSH1 0x0 DUP3 DUP3 PUSH1 0x40 MLOAD PUSH2 0x1EE SWAP3 SWAP2 SWAP1 PUSH2 0x842 JUMP JUMPDEST PUSH1 0x40 MLOAD DUP1 SWAP2 SUB SWAP1 KECCAK256 SWAP1 POP PUSH32 0x0 PUSH20 0xFFFFFFFFFFFFFFFFFFFFFFFFFFFFFFFFFFFFFFFF AND PUSH4 0x5F6970C3 DUP10 DUP10 DUP10 DUP10 DUP10 DUP8 PUSH1 0x40 MLOAD DUP8 PUSH4 0xFFFFFFFF AND PUSH1 0xE0 SHL DUP2 MSTORE PUSH1 0x4 ADD PUSH2 0x25B SWAP7 SWAP6 SWAP5 SWAP4 SWAP3 SWAP2 SWAP1 PUSH2 0x9A9 JUMP JUMPDEST PUSH1 0x20 PUSH1 0x40 MLOAD DUP1 DUP4 SUB DUP2 PUSH1 0x0 DUP8 GAS CALL ISZERO DUP1 ISZERO PUSH2 0x27A JUMPI RETURNDATASIZE PUSH1 0x0 DUP1 RETURNDATACOPY RETURNDATASIZE PUSH1 0x0 REVERT JUMPDEST POP POP POP POP PUSH1 0x40 MLOAD RETURNDATASIZE PUSH1 0x1F NOT PUSH1 0x1F DUP3 ADD AND DUP3 ADD DUP1 PUSH1 0x40 MSTORE POP DUP2 ADD SWAP1 PUSH2 0x29E SWAP2 SWAP1 PUSH2 0x97C JUMP JUMPDEST PUSH2 0x2D4 JUMPI PUSH1 0x40 MLOAD PUSH32 0x500C44B400000000000000000000000000000000000000000000000000000000 DUP2 MSTORE PUSH1 0x4 ADD PUSH1 0x40 MLOAD DUP1 SWAP2 SUB SWAP1 REVERT JUMPDEST PUSH2 0x2E2 DUP8 DUP8 DUP8 DUP8 DUP8 DUP8 PUSH2 0x457 JUMP JUMPDEST POP POP POP POP POP POP POP POP JUMP JUMPDEST PUSH1 0x0 DUP6 DUP6 DUP2 ADD SWAP1 PUSH2 0x2FD SWAP2 SWAP1 PUSH2 0xA3E JUMP JUMPDEST SWAP1 POP PUSH1 0x0 PUSH32 0x0 PUSH20 0xFFFFFFFFFFFFFFFFFFFFFFFFFFFFFFFFFFFFFFFF AND PUSH4 0x935B13F6 DUP7 DUP7 PUSH1 0x40 MLOAD DUP4 PUSH4 0xFFFFFFFF AND PUSH1 0xE0 SHL DUP2 MSTORE PUSH1 0x4 ADD PUSH2 0x35C SWAP3 SWAP2 SWAP1 PUSH2 0xA6B JUMP JUMPDEST PUSH1 0x20 PUSH1 0x40 MLOAD DUP1 DUP4 SUB DUP2 DUP7 GAS STATICCALL ISZERO DUP1 ISZERO PUSH2 0x379 JUMPI RETURNDATASIZE PUSH1 0x0 DUP1 RETURNDATACOPY RETURNDATASIZE PUSH1 0x0 REVERT JUMPDEST POP POP POP POP PUSH1 0x40 MLOAD RETURNDATASIZE PUSH1 0x1F NOT PUSH1 0x1F DUP3 ADD AND DUP3 ADD DUP1 PUSH1 0x40 MSTORE POP DUP2 ADD SWAP1 PUSH2 0x39D SWAP2 SWAP1 PUSH2 0xACD JUMP JUMPDEST SWAP1 POP DUP1 PUSH20 0xFFFFFFFFFFFFFFFFFFFFFFFFFFFFFFFFFFFFFFFF AND PUSH4 0xA9059CBB DUP4 DUP6 PUSH1 0x40 MLOAD DUP4 PUSH4 0xFFFFFFFF AND PUSH1 0xE0 SHL DUP2 MSTORE PUSH1 0x4 ADD PUSH2 0x3DA SWAP3 SWAP2 SWAP1 PUSH2 0xB09 JUMP JUMPDEST PUSH1 0x20 PUSH1 0x40 MLOAD DUP1 DUP4 SUB DUP2 PUSH1 0x0 DUP8 GAS CALL ISZERO DUP1 ISZERO PUSH2 0x3F9 JUMPI RETURNDATASIZE PUSH1 0x0 DUP1 RETURNDATACOPY RETURNDATASIZE PUSH1 0x0 REVERT JUMPDEST POP POP POP POP PUSH1 0x40 MLOAD RETURNDATASIZE PUSH1 0x1F NOT PUSH1 0x1F DUP3 ADD AND DUP3 ADD DUP1 PUSH1 0x40 MSTORE POP DUP2 ADD SWAP1 PUSH2 0x41D SWAP2 SWAP1 PUSH2 0x97C JUMP JUMPDEST POP PUSH32 0x68F46C45A243A0E9065A97649FAF9A5AFE1692F2679E650C2F853B9CD734CC0E PUSH1 0x40 MLOAD PUSH1 0x40 MLOAD DUP1 SWAP2 SUB SWAP1 LOG1 POP POP POP POP POP POP POP POP POP POP POP JUMP JUMPDEST POP POP POP POP POP POP JUMP JUMPDEST PUSH1 0x0 PUSH20 0xFFFFFFFFFFFFFFFFFFFFFFFFFFFFFFFFFFFFFFFF DUP3 AND SWAP1 POP SWAP2 SWAP1 POP JUMP JUMPDEST PUSH1 0x0 DUP2 SWAP1 POP SWAP2 SWAP1 POP JUMP JUMPDEST PUSH1 0x0 PUSH2 0x4A4 PUSH2 0x49F PUSH2 0x49A DUP5 PUSH2 0x45F JUMP JUMPDEST PUSH2 0x47F JUMP JUMPDEST PUSH2 0x45F JUMP JUMPDEST SWAP1 POP SWAP2 SWAP1 POP JUMP JUMPDEST PUSH1 0x0 PUSH2 0x4B6 DUP3 PUSH2 0x489 JUMP JUMPDEST SWAP1 POP SWAP2 SWAP1 POP JUMP JUMPDEST PUSH1 0x0 PUSH2 0x4C8 DUP3 PUSH2 0x4AB JUMP JUMPDEST SWAP1 POP SWAP2 SWAP1 POP JUMP JUMPDEST PUSH2 0x4D8 DUP2 PUSH2 0x4BD JUMP JUMPDEST DUP3 MSTORE POP POP JUMP JUMPDEST PUSH1 0x0 PUSH1 0x20 DUP3 ADD SWAP1 POP PUSH2 0x4F3 PUSH1 0x0 DUP4 ADD DUP5 PUSH2 0x4CF JUMP JUMPDEST SWAP3 SWAP2 POP POP JUMP JUMPDEST PUSH1 0x0 DUP1 REVERT JUMPDEST PUSH1 0x0 DUP1 REVERT JUMPDEST PUSH1 0x0 DUP2 SWAP1 POP SWAP2 SWAP1 POP JUMP JUMPDEST PUSH2 0x516 DUP2 PUSH2 0x503 JUMP JUMPDEST DUP2 EQ PUSH2 0x521 JUMPI PUSH1 0x0 DUP1 REVERT JUMPDEST POP JUMP JUMPDEST PUSH1 0x0 DUP2 CALLDATALOAD SWAP1 POP PUSH2 0x533 DUP2 PUSH2 0x50D JUMP JUMPDEST SWAP3 SWAP2 POP POP JUMP JUMPDEST PUSH1 0x0 DUP1 REVERT JUMPDEST PUSH1 0x0 DUP1 REVERT JUMPDEST PUSH1 0x0 DUP1 REVERT JUMPDEST PUSH1 0x0 DUP1 DUP4 PUSH1 0x1F DUP5 ADD SLT PUSH2 0x55E JUMPI PUSH2 0x55D PUSH2 0x539 JUMP JUMPDEST JUMPDEST DUP3 CALLDATALOAD SWAP1 POP PUSH8 0xFFFFFFFFFFFFFFFF DUP2 GT ISZERO PUSH2 0x57B JUMPI PUSH2 0x57A PUSH2 0x53E JUMP JUMPDEST JUMPDEST PUSH1 0x20 DUP4 ADD SWAP2 POP DUP4 PUSH1 0x1 DUP3 MUL DUP4 ADD GT ISZERO PUSH2 0x597 JUMPI PUSH2 0x596 PUSH2 0x543 JUMP JUMPDEST JUMPDEST SWAP3 POP SWAP3 SWAP1 POP JUMP JUMPDEST PUSH1 0x0 DUP1 DUP4 PUSH1 0x1F DUP5 ADD SLT PUSH2 0x5B4 JUMPI PUSH2 0x5B3 PUSH2 0x539 JUMP JUMPDEST JUMPDEST DUP3 CALLDATALOAD SWAP1 POP PUSH8 0xFFFFFFFFFFFFFFFF DUP2 GT ISZERO PUSH2 0x5D1 JUMPI PUSH2 0x5D0 PUSH2 0x53E JUMP JUMPDEST JUMPDEST PUSH1 0x20 DUP4 ADD SWAP2 POP DUP4 PUSH1 0x1 DUP3 MUL DUP4 ADD GT ISZERO PUSH2 0x5ED JUMPI PUSH2 0x5EC PUSH2 0x543 JUMP JUMPDEST JUMPDEST SWAP3 POP SWAP3 SWAP1 POP JUMP JUMPDEST PUSH1 0x0 DUP2 SWAP1 POP SWAP2 SWAP1 POP JUMP JUMPDEST PUSH2 0x607 DUP2 PUSH2 0x5F4 JUMP JUMPDEST DUP2 EQ PUSH2 0x612 JUMPI PUSH1 0x0 DUP1 REVERT JUMPDEST POP JUMP JUMPDEST PUSH1 0x0 DUP2 CALLDATALOAD SWAP1 POP PUSH2 0x624 DUP2 PUSH2 0x5FE JUMP JUMPDEST SWAP3 SWAP2 POP POP JUMP JUMPDEST PUSH1 0x0 DUP1 PUSH1 0x0 DUP1 PUSH1 0x0 DUP1 PUSH1 0x0 DUP1 PUSH1 0x0 DUP1 PUSH1 0xC0 DUP12 DUP14 SUB SLT ISZERO PUSH2 0x64D JUMPI PUSH2 0x64C PUSH2 0x4F9 JUMP JUMPDEST JUMPDEST PUSH1 0x0 PUSH2 0x65B DUP14 DUP3 DUP15 ADD PUSH2 0x524 JUMP JUMPDEST SWAP11 POP POP PUSH1 0x20 DUP12 ADD CALLDATALOAD PUSH8 0xFFFFFFFFFFFFFFFF DUP2 GT ISZERO PUSH2 0x67C JUMPI PUSH2 0x67B PUSH2 0x4FE JUMP JUMPDEST JUMPDEST PUSH2 0x688 DUP14 DUP3 DUP15 ADD PUSH2 0x548 JUMP JUMPDEST SWAP10 POP SWAP10 POP POP PUSH1 0x40 DUP12 ADD CALLDATALOAD PUSH8 0xFFFFFFFFFFFFFFFF DUP2 GT ISZERO PUSH2 0x6AB JUMPI PUSH2 0x6AA PUSH2 0x4FE JUMP JUMPDEST JUMPDEST PUSH2 0x6B7 DUP14 DUP3 DUP15 ADD PUSH2 0x548 JUMP JUMPDEST SWAP8 POP SWAP8 POP POP PUSH1 0x60 DUP12 ADD CALLDATALOAD PUSH8 0xFFFFFFFFFFFFFFFF DUP2 GT ISZERO PUSH2 0x6DA JUMPI PUSH2 0x6D9 PUSH2 0x4FE JUMP JUMPDEST JUMPDEST PUSH2 0x6E6 DUP14 DUP3 DUP15 ADD PUSH2 0x59E JUMP JUMPDEST SWAP6 POP SWAP6 POP POP PUSH1 0x80 DUP12 ADD CALLDATALOAD PUSH8 0xFFFFFFFFFFFFFFFF DUP2 GT ISZERO PUSH2 0x709 JUMPI PUSH2 0x708 PUSH2 0x4FE JUMP JUMPDEST JUMPDEST PUSH2 0x715 DUP14 DUP3 DUP15 ADD PUSH2 0x548 JUMP JUMPDEST SWAP4 POP SWAP4 POP POP PUSH1 0xA0 PUSH2 0x728 DUP14 DUP3 DUP15 ADD PUSH2 0x615 JUMP JUMPDEST SWAP2 POP POP SWAP3 SWAP6 SWAP9 SWAP12 SWAP2 SWAP5 SWAP8 SWAP11 POP SWAP3 SWAP6 SWAP9 POP JUMP JUMPDEST PUSH1 0x0 DUP1 PUSH1 0x0 DUP1 PUSH1 0x0 DUP1 PUSH1 0x0 PUSH1 0x80 DUP9 DUP11 SUB SLT ISZERO PUSH2 0x759 JUMPI PUSH2 0x758 PUSH2 0x4F9 JUMP JUMPDEST JUMPDEST PUSH1 0x0 PUSH2 0x767 DUP11 DUP3 DUP12 ADD PUSH2 0x524 JUMP JUMPDEST SWAP8 POP POP PUSH1 0x20 DUP9 ADD CALLDATALOAD PUSH8 0xFFFFFFFFFFFFFFFF DUP2 GT ISZERO PUSH2 0x788 JUMPI PUSH2 0x787 PUSH2 0x4FE JUMP JUMPDEST JUMPDEST PUSH2 0x794 DUP11 DUP3 DUP12 ADD PUSH2 0x548 JUMP JUMPDEST SWAP7 POP SWAP7 POP POP PUSH1 0x40 DUP9 ADD CALLDATALOAD PUSH8 0xFFFFFFFFFFFFFFFF DUP2 GT ISZERO PUSH2 0x7B7 JUMPI PUSH2 0x7B6 PUSH2 0x4FE JUMP JUMPDEST JUMPDEST PUSH2 0x7C3 DUP11 DUP3 DUP12 ADD PUSH2 0x548 JUMP JUMPDEST SWAP5 POP SWAP5 POP POP PUSH1 0x60 DUP9 ADD CALLDATALOAD PUSH8 0xFFFFFFFFFFFFFFFF DUP2 GT ISZERO PUSH2 0x7E6 JUMPI PUSH2 0x7E5 PUSH2 0x4FE JUMP JUMPDEST JUMPDEST PUSH2 0x7F2 DUP11 DUP3 DUP12 ADD PUSH2 0x59E JUMP JUMPDEST SWAP3 POP SWAP3 POP POP SWAP3 SWAP6 SWAP9 SWAP2 SWAP5 SWAP8 POP SWAP3 SWAP6 POP JUMP JUMPDEST PUSH1 0x0 DUP2 SWAP1 POP SWAP3 SWAP2 POP POP JUMP JUMPDEST DUP3 DUP2 DUP4 CALLDATACOPY PUSH1 0x0 DUP4 DUP4 ADD MSTORE POP POP POP JUMP JUMPDEST PUSH1 0x0 PUSH2 0x829 DUP4 DUP6 PUSH2 0x803 JUMP JUMPDEST SWAP4 POP PUSH2 0x836 DUP4 DUP6 DUP5 PUSH2 0x80E JUMP JUMPDEST DUP3 DUP5 ADD SWAP1 POP SWAP4 SWAP3 POP POP POP JUMP JUMPDEST PUSH1 0x0 PUSH2 0x84F DUP3 DUP5 DUP7 PUSH2 0x81D JUMP JUMPDEST SWAP2 POP DUP2 SWAP1 POP SWAP4 SWAP3 POP POP POP JUMP JUMPDEST PUSH2 0x864 DUP2 PUSH2 0x503 JUMP JUMPDEST DUP3 MSTORE POP POP JUMP JUMPDEST PUSH1 0x0 DUP3 DUP3 MSTORE PUSH1 0x20 DUP3 ADD SWAP1 POP SWAP3 SWAP2 POP POP JUMP JUMPDEST PUSH1 0x0 PUSH1 0x1F NOT PUSH1 0x1F DUP4 ADD AND SWAP1 POP SWAP2 SWAP1 POP JUMP JUMPDEST PUSH1 0x0 PUSH2 0x898 DUP4 DUP6 PUSH2 0x86A JUMP JUMPDEST SWAP4 POP PUSH2 0x8A5 DUP4 DUP6 DUP5 PUSH2 0x80E JUMP JUMPDEST PUSH2 0x8AE DUP4 PUSH2 0x87B JUMP JUMPDEST DUP5 ADD SWAP1 POP SWAP4 SWAP3 POP POP POP JUMP JUMPDEST PUSH2 0x8C2 DUP2 PUSH2 0x5F4 JUMP JUMPDEST DUP3 MSTORE POP POP JUMP JUMPDEST PUSH1 0x0 PUSH1 0xC0 DUP3 ADD SWAP1 POP PUSH2 0x8DD PUSH1 0x0 DUP4 ADD DUP13 PUSH2 0x85B JUMP JUMPDEST DUP2 DUP2 SUB PUSH1 0x20 DUP4 ADD MSTORE PUSH2 0x8F0 DUP2 DUP11 DUP13 PUSH2 0x88C JUMP JUMPDEST SWAP1 POP DUP2 DUP2 SUB PUSH1 0x40 DUP4 ADD MSTORE PUSH2 0x905 DUP2 DUP9 DUP11 PUSH2 0x88C JUMP JUMPDEST SWAP1 POP PUSH2 0x914 PUSH1 0x60 DUP4 ADD DUP8 PUSH2 0x85B JUMP JUMPDEST DUP2 DUP2 SUB PUSH1 0x80 DUP4 ADD MSTORE PUSH2 0x927 DUP2 DUP6 DUP8 PUSH2 0x88C JUMP JUMPDEST SWAP1 POP PUSH2 0x936 PUSH1 0xA0 DUP4 ADD DUP5 PUSH2 0x8B9 JUMP JUMPDEST SWAP11 SWAP10 POP POP POP POP POP POP POP POP POP POP JUMP JUMPDEST PUSH1 0x0 DUP2 ISZERO ISZERO SWAP1 POP SWAP2 SWAP1 POP JUMP JUMPDEST PUSH2 0x959 DUP2 PUSH2 0x944 JUMP JUMPDEST DUP2 EQ PUSH2 0x964 JUMPI PUSH1 0x0 DUP1 REVERT JUMPDEST POP JUMP JUMPDEST PUSH1 0x0 DUP2 MLOAD SWAP1 POP PUSH2 0x976 DUP2 PUSH2 0x950 JUMP JUMPDEST SWAP3 SWAP2 POP POP JUMP JUMPDEST PUSH1 0x0 PUSH1 0x20 DUP3 DUP5 SUB SLT ISZERO PUSH2 0x992 JUMPI PUSH2 0x991 PUSH2 0x4F9 JUMP JUMPDEST JUMPDEST PUSH1 0x0 PUSH2 0x9A0 DUP5 DUP3 DUP6 ADD PUSH2 0x967 JUMP JUMPDEST SWAP2 POP POP SWAP3 SWAP2 POP POP JUMP JUMPDEST PUSH1 0x0 PUSH1 0x80 DUP3 ADD SWAP1 POP PUSH2 0x9BE PUSH1 0x0 DUP4 ADD DUP10 PUSH2 0x85B JUMP JUMPDEST DUP2 DUP2 SUB PUSH1 0x20 DUP4 ADD MSTORE PUSH2 0x9D1 DUP2 DUP8 DUP10 PUSH2 0x88C JUMP JUMPDEST SWAP1 POP DUP2 DUP2 SUB PUSH1 0x40 DUP4 ADD MSTORE PUSH2 0x9E6 DUP2 DUP6 DUP8 PUSH2 0x88C JUMP JUMPDEST SWAP1 POP PUSH2 0x9F5 PUSH1 0x60 DUP4 ADD DUP5 PUSH2 0x85B JUMP JUMPDEST SWAP8 SWAP7 POP POP POP POP POP POP POP JUMP JUMPDEST PUSH1 0x0 PUSH2 0xA0B DUP3 PUSH2 0x45F JUMP JUMPDEST SWAP1 POP SWAP2 SWAP1 POP JUMP JUMPDEST PUSH2 0xA1B DUP2 PUSH2 0xA00 JUMP JUMPDEST DUP2 EQ PUSH2 0xA26 JUMPI PUSH1 0x0 DUP1 REVERT JUMPDEST POP JUMP JUMPDEST PUSH1 0x0 DUP2 CALLDATALOAD SWAP1 POP PUSH2 0xA38 DUP2 PUSH2 0xA12 JUMP JUMPDEST SWAP3 SWAP2 POP POP JUMP JUMPDEST PUSH1 0x0 PUSH1 0x20 DUP3 DUP5 SUB SLT ISZERO PUSH2 0xA54 JUMPI PUSH2 0xA53 PUSH2 0x4F9 JUMP JUMPDEST JUMPDEST PUSH1 0x0 PUSH2 0xA62 DUP5 DUP3 DUP6 ADD PUSH2 0xA29 JUMP JUMPDEST SWAP2 POP POP SWAP3 SWAP2 POP POP JUMP JUMPDEST PUSH1 0x0 PUSH1 0x20 DUP3 ADD SWAP1 POP DUP2 DUP2 SUB PUSH1 0x0 DUP4 ADD MSTORE PUSH2 0xA86 DUP2 DUP5 DUP7 PUSH2 0x88C JUMP JUMPDEST SWAP1 POP SWAP4 SWAP3 POP POP POP JUMP JUMPDEST PUSH1 0x0 PUSH2 0xA9A DUP3 PUSH2 0x45F JUMP JUMPDEST SWAP1 POP SWAP2 SWAP1 POP JUMP JUMPDEST PUSH2 0xAAA DUP2 PUSH2 0xA8F JUMP JUMPDEST DUP2 EQ PUSH2 0xAB5 JUMPI PUSH1 0x0 DUP1 REVERT JUMPDEST POP JUMP JUMPDEST PUSH1 0x0 DUP2 MLOAD SWAP1 POP PUSH2 0xAC7 DUP2 PUSH2 0xAA1 JUMP JUMPDEST SWAP3 SWAP2 POP POP JUMP JUMPDEST PUSH1 0x0 PUSH1 0x20 DUP3 DUP5 SUB SLT ISZERO PUSH2 0xAE3 JUMPI PUSH2 0xAE2 PUSH2 0x4F9 JUMP JUMPDEST JUMPDEST PUSH1 0x0 PUSH2 0xAF1 DUP5 DUP3 DUP6 ADD PUSH2 0xAB8 JUMP JUMPDEST SWAP2 POP POP SWAP3 SWAP2 POP POP JUMP JUMPDEST PUSH2 0xB03 DUP2 PUSH2 0xA8F JUMP JUMPDEST DUP3 MSTORE POP POP JUMP JUMPDEST PUSH1 0x0 PUSH1 0x40 DUP3 ADD SWAP1 POP PUSH2 0xB1E PUSH1 0x0 DUP4 ADD DUP6 PUSH2 0xAFA JUMP JUMPDEST PUSH2 0xB2B PUSH1 0x20 DUP4 ADD DUP5 PUSH2 0x8B9 JUMP JUMPDEST SWAP4 SWAP3 POP POP POP JUMP INVALID LOG2 PUSH5 0x6970667358 0x22 SLT KECCAK256 SWAP6 SGT SHR 0xD7 MSTORE SWAP10 0xBF DUP6 SWAP3 0x4A 0xB8 SWAP4 REVERT 0xA9 0xEC 0xDD 0xBA LT LOG3 SWAP1 0xDF EXTCODEHASH 0xCF DUP7 0x5C 0xE 0xE4 0xB6 XOR CALLER 0xAC BASEFEE PUSH5 0x736F6C6343 STOP ADDMOD SLT STOP CALLER "
				},
				"gasEstimates": {
					"creation": {
						"codeDepositCost": "584000",
						"executionCost": "infinite",
						"totalCost": "infinite"
					},
					"external": {
						"execute(bytes32,string,string,bytes)": "infinite",
						"executeWithToken(bytes32,string,string,bytes,string,uint256)": "infinite",
						"gateway()": "infinite"
					},
					"internal": {
						"_executeWithToken(string calldata,string calldata,bytes calldata,string calldata,uint256)": "infinite"
					}
				},
				"methodIdentifiers": {
					"execute(bytes32,string,string,bytes)": "49160658",
					"executeWithToken(bytes32,string,string,bytes,string,uint256)": "1a98b2e0",
					"gateway()": "116191b6"
				}
			},
			"storageLayout": {
				"storage": [],
				"types": null
			},
			"userdoc": {
				"kind": "user",
				"methods": {},
				"version": 1
			}
		}
	}
}